:020000040800F2
:10000000600A002001010008412D0008E5230008D6
:10001000C92C000875090008093500080000000017
:100020000000000000000000000000005F2E00083B
:10003000390A0008000000005D2E0008E52F0008C6
:100040001B0100081B0100081B0100081B01000820
:100050001B0100081B0100081B0100081B01000810
:100060001B0100081B0100081B0100081B01000800
:100070001B0100081B0100081B0100081B010008F0
:100080001B0100081B0100081B0100081B010008E0
:100090001B0100081B0100081B0100081B010008D0
:1000A0001B010008C13000081B010008B530000822
:1000B0001B0100081B0100081B0100081B010008B0
:1000C0001B0100081B0100081B0100081B010008A0
:1000D0001B010008FD3400081B0100081B0100087B
:1000E0001B0100081B0100081B010008DFF80CD0F1
:1000F00000F0B8FB00480047213A0008600A0020E1
:100100000648804706480047FEE7FEE7FEE7FEE7B1
:10011000FEE7FEE7FEE7FEE7FEE7FEE7B330000896
:10012000ED000008202A04DB203A21FA02F0002129
:10013000704721FA02F3D040C2F1200291400843F7
:1001400019467047D2B201E000F8012B491EFBD2DC
:1001500070470022F6E710B513460A4604461946D2
:10016000FFF7F0FF204610BDF0B480EA0102D40F83
:100170004200B2EB410F02D20246084611464A0045
:1001800042D0C30DDDB2C1F3C752AD1A202D35DA0E
:10019000C1F3160141F4000204B15242C5F1200638
:1001A00002FA06F12A411044B3EBD05F23D0C4B168
:1001B000012DA0EBC35009DCF0BC4FF0004202EA75
:1001C000C352DBB200F5000000F0C1BA400000F1FC
:1001D000807000EBC350A0F1807040EAD1704900FC
:1001E00009E0490841EAC071A0EBC35000F50000E6
:1001F000400800EBC350F0BC00F0A0BA61420122FD
:1002000002EB4101001BF6E7F0BC704781F00041B2
:10021000AAE780F00040A7E780EA010210B502F0EB
:100220000043400022D04A001FD0010E01EB1261B2
:10023000C0F35600C2F3560240F4000042F400023C
:10024000A0FB022000047F39140400D0401C50EAB7
:10025000124001D44000491EC2B20C0604EBD0107B
:10026000401C4008802A02D003E0002010BD20F08E
:100270000100002900DA0020184310BD30B480EAE4
:10028000010202F0004530F0004221F0004013D09E
:1002900090B1C30DD40DC2F31601C0F31600E41AD9
:1002A00041F4000140F400027D34914201D3641C0A
:1002B00000E04900002C02DA30BC002070474FF407
:1002C00000000023914201D3891A034340084FEAFA
:1002D0004101F7D151B1914202D14FF0004105E007
:1002E00002D24FF0010101E06FF0010103EBC450B5
:1002F000284430BC00F022BA2DE9FE4F804681EA46
:100300000300C00F0C46009021F0004123F000458F
:10031000B8EB0200A94105D24046214690461C4652
:100320000B46024623F00040104347D0270DC7F389
:100330000A00C3F30A510290401A019040286BDA78
:10034000C3F3130040F4801B0098924620B10023B1
:10035000D2EB030A63EB0B0B01985946C0F1400244
:10036000504600F0CAF906460D4650465946019AD5
:1003700000F0D2F910EB08006141002487EA115225
:1003800084EAE7731A4340D0009A62B3019A012AC3
:100390004FEA075215DC001B61EB02014FF00042EF
:1003A00002EA0752CDE90042001C41F580113246B5
:1003B0002B4600F009FA03B0BDE8F08F4046214615
:1003C000F9E7001B61EB0201001C41F580130018E6
:1003D0005B412018A2F5001747EB030140EAD570F6
:1003E000B6196D4111E06D084FEA360645EAC07551
:1003F0004FEA0752001B61EB0201001C41F580111E
:1004000049084FEA30000019514132462B4603B0EB
:10041000BDE8F04F00F0C9B9009801224000002368
:10042000D0EB020263EBE073009821464FEAE074E0
:10043000B8EB000061EB0401E9E783F000435BE700
:1004400081F0004158E72DE9FE4F81EA030404F0F2
:10045000004421F0004100944FF0000B23F00043D2
:1004600050EA01045ED052EA03045BD0C3F30A549D
:10047000C1F30A552C44A4F2F3340194A0FB0254B6
:10048000C1F3130141F48011C3F3130343F4801348
:1004900001FB024400FB034E840A970A44EA81549C
:1004A00047EA8357A4FB076802958D0A05FB078579
:1004B0004FEA932C04FB0C542705029D4FEA065883
:1004C00047EA1637B5EB08056EEB070C870E920E60
:1004D00047EA811742EA8312A7FB0201B6EB0B0140
:1004E00064EB00042B0D43EA0C335E1844EB1C5004
:1004F000DA465146E7FB0201C5F313044FEA0B331A
:1005000043EA14534FEA0432019C43EA0603A4F180
:100510000C040294009CCDE900B400F055F903B03E
:10052000BDE8F08F00200146F9E72DE9F04D81EAA2
:10053000030404F0004B21F0004514464FF0000A7C
:1005400023F0004150EA050220D054EA01021DD0F8
:10055000C5F30A570246C5F31303C1F31300C1F3F1
:100560000A5640F4801543F48013A7EB0608101BCD
:10057000D64608F2FD3873EB050002D308F10108F6
:1005800001E092185B41B8F1000F03DA0020014648
:10059000BDE8F08D00204FF48011064684460EE041
:1005A000171B73EB050705D3121B63EB050306430B
:1005B0004CEA010C49084FEA300092185B4150EABE
:1005C0000107EDD152EA030012D082EA040083EA67
:1005D0000501084305D0101BAB4106D201220023C0
:1005E00006E000224FF0004302E06FF001025310DA
:1005F0001AEB06004CEB085110EB0A0041EB0B0123
:10060000BDE8F04D00F0D1B870B521F000430343D0
:100610000CD0C1F30A550024D5EB040564EB0403A8
:10062000D617AD1AB34102DB0020014670BD201879
:1006300041EB025170BDC10F80EAE0700844CA0767
:100640009623002100F083B80EB5C10F80EAE07058
:100650000844CA07002140F233438DE80E000A46E1
:100660000B4600F0B1F803B000BD00F0004220F0EE
:100670000040C10DC0F3160040F400007F2901DAEC
:1006800000207047962903DCC1F19601C84001E0C3
:1006900096398840002AF4D04042704700F000426A
:1006A00030F000400AD0C10D01F56071C0F31600B2
:1006B00042EA0151C2084007114370470020014639
:1006C000704701F0004330B421F0004150EA0102CC
:1006D00006D00A0DA2F56072C1F31301002A02DCF4
:1006E00030BC00207047440F44EAC104C100E01848
:1006F00030BC00EBC25000F021B8202A04DB203AC5
:1007000000FA02F1002070479140C2F1200320FA64
:1007100003F3194390407047202A06DBCB17203A99
:1007200041FA02F043EAE07306E041FA02F3D040F6
:10073000C2F1200291400843194670470029A8BF22
:100740007047401C490008BF20F00100704710B4FA
:10075000B0FA80FC00FA0CF050EA010404BF10BCAF
:10076000704749B1CCF1200421FA04F411FA0CF1DC
:1007700018BF012121430843A3EB0C01CB1D4FEA15
:1007800000614FEA102042BF002010BC704700EB10
:10079000C35010440029A4BF10BC7047401C49003E
:1007A00008BF20F0010010BC704710B5141E73F193
:1007B000000408DA401C41F1000192185B411A4321
:1007C00001D120F0010010BD2DE9F04D92469B466D
:1007D00011B1B1FA81F202E0B0FA80F22032904613
:1007E000FFF78BFF04460F4640EA0A0041EA0B017F
:1007F00053465A46084313D0114653EA010019D014
:10080000C8F140025046FFF78DFC05460E465046A3
:1008100059464246FFF771FF084305D0012004E026
:1008200020463946BDE8F08D0020054346EAE076D3
:100830002C4337430A986305E40AA0EB0800002222
:10084000FD0A44EA47540A3002D500200146E9E790
:10085000010510196941DDE9084500196941BDE844
:10086000F04DA2E7064C074D06E0E06840F00103BA
:1008700094E8070098471034AC42F6D3FFF73AFCEF
:1008800048470008684700082DE9F041274CB4F9B3
:100890000000FFF7D9FE6FF00D052A46FFF7B4FE02
:1008A000FFF70FFF6061B4F90200FFF7CDFE2A46A3
:1008B000FFF7AAFEFFF705FF0646A061B4F90400A2
:1008C000FFF7C2FE2A46FFF79FFEFFF7FAFEE06140
:1008D000FFF7E4FE07460D463046FFF7DFFE3A46D7
:1008E0002B4602F0D1FF0022114BFFF7ACFD114A5D
:1008F000114BFFF71AFEFFF7E4FE05462062B4F93C
:100900000600FFF7A1FE4FF066320C4BFFF70DFE1D
:10091000FFF7D7FE606201462846226900F068F8BA
:10092000E168FFF773FCA062BDE8F0810C000020D5
:10093000008066401F85EB51B81E09406666304056
:1009400070B50B4C084E0949606AFFF765FC054617
:10095000A06A314680F00040FFF75EFC2946FFF7B1
:1009600055FC206470BD0000000082423333134008
:100970000C000020FEE7000010B54FF480710D4818
:1009800000F0D8F90C49002218B10A608A604A6068
:1009900010BD0868401C08601E2808DB486808B1C4
:1009A0000A6010BD01208860C1E9002010BD8A6086
:1009B00010BD0000000801400000002070B5054691
:1009C0004FF6FF7000224AF201040EE0AB5C584083
:1009D0000023C60702D084EA500000E040085B1CF8
:1009E000DBB2082BF5D3521CD2B28A42EED370BDD3
:1009F0002DE9F04117460E4C88460E4A0B4E014633
:100A000010466660FFF708FC054639464046FFF78A
:100A100003FC2168FFF7A8FB3146FFF7FDFB2946E1
:100A2000FFF7A2FB2060BDE8F081000048E17A3FBB
:100A30007C00002000D7A33C704770470B4810B5DE
:100A40000168486A02B20A485242002302634B62BC
:100A5000084909684C6A24B2C4624B62016E2144A1
:100A60000166416E1144416610BD0000C4010020C2
:100A70000C00002034010020064A10B5911E881E8B
:100A800001F098FE034ABDE81040921D911E881E99
:100A900001F0A8BE1000002010B590F8211000242D
:100AA000022903D00421816301243DE001680A6822
:100AB00022F00E020A6001680A6822F001020A6050
:100AC0001A4A0168914201D1012121E0174A1432EA
:100AD000914201D110211BE0144A2832914201D1E8
:100AE000891515E0114A3C32914201D189140FE079
:100AF0000E4A5032914202D14FF4803108E00B4A45
:100B00006432914202D14FF4801101E04FF08071C4
:100B1000064A083A5160012180F82110002180F82E
:100B20002010416B01B18847204610BD08000240EB
:100B300070B5044600F010F90546601C02D0044868
:100B40000078044400F008F9401BA042FAD370BDBD
:100B5000840000202DE9F84FDFF8B891002409F156
:100B6000040A0AF1040B23460F270BF1040EC9E017
:100B70000125A5402A40AA427DD1674ED1F804C084
:100B8000ACEB0608B44532D014DCBCF1030F3AD00C
:100B900009DCBCF1000F2AD0BCF1010F1CD0BCF164
:100BA000020F31D11DE0BCF1110F17D0BCF1120FB3
:100BB0002AD119E0B8F5881F19D006DCB8F5803FB6
:100BC00015D0B8F5801F1FD111E0B8F5001F0ED069
:100BD000B8F5041F18D10AE0CB6815E0CB681B1DDF
:100BE00012E0CB6808330FE0CB680C330CE08B6865
:100BF0002BB1012B4FF0080303D0456104E004231F
:100C000002E0056100E00023FF2A01D8064601E06A
:100C100000F104064FEA840501D9A5F12005D6F8B4
:100C2000008007FA05FC28EA0C0803FA05F548EAF3
:100C30000508C6F800804D68ED0062D5374DAE69F5
:100C400046F00106AE61AD6924F0030605F001052A
:100C50000095334D06EB050CDCF80850A607360F5F
:100C600007FA06F825EA0805DFF8B880404503D101
:100C70004FF0000817E044E0DFF8AC80404502D1B7
:100C80004FF001080FE0DFF8A480404502D14FF09B
:100C9000020808E0DFF89880404502D14FF00308D1
:100CA00001E04FF0040808FA06F848EA0508CCF815
:100CB00008804D68D9F80060ED034D4601D5164314
:100CC00000E096432E604D68DAF80060AD035546AB
:100CD00001D5164300E096432E604D68DBF80060B6
:100CE000ED025D4601D5164300E096432E604D6847
:100CF000DEF80060AD02754601D5164300E096436C
:100D00002E60641C0D682A46E5407FF431AFBDE8D3
:100D1000F88F000000040140000011100010024094
:100D20000000014000080140000C0140001001409B
:100D3000001401408068084000D001207047C2685C
:100D400021EA02030A4043EA0241016170470AB105
:100D5000016170470904FBE70148806870470000A3
:100D60008400002070B5040025D094F83D000025D3
:100D700020B984F83C50204600F078FA242084F80A
:100D80003D002068016821F00101016020680168D0
:100D900041F4004101602068016821F400410160D4
:100DA00000F0CAFB4D4A6168914201D84C4900E00D
:100DB0004C49884201D2012070BD4B492368B0FBE9
:100DC000F1F15E6826F03F060E435E606368934271
:100DD00006D94FF4967359434FF47A73B1FBF3F18C
:100DE0002368491C1E6A26F03F0631431962616878
:100DF000914210D84900401EB0FBF1F2521CC2F3E0
:100E00000B02042A01D2042022E0B0FBF1F0401CC6
:100E1000C0F30B001CE0A268F2B301EBC10303EBCB
:100E20000116431EB3FBF6F35B1C43F480431B0522
:100E300049D092B301EBC10202EB0111401EB0FB9D
:100E4000F1F0401CC0F30B0040F4804040F400403F
:100E50002168CA694CF6FF739A431043C861D4E90C
:100E6000071001432068026822F0C00211430160AC
:100E7000D4E9030101432068826848F2FF339A43B2
:100E800011438160D4E9050108432168CA6822F052
:100E9000FF021043C86001E00EE016E02068016820
:100EA00041F0010101602564202084F83D002563A4
:100EB00084F83E50002070BD01EB4106431EB3FB99
:100EC000F6F35B1CB3E70120C2E701EB4101401ED2
:100ED000B0FBF1F0401CC0F30B00B7E7A0860100A7
:100EE00080841E0000093D0040420F002DE9FF4FA5
:100EF00083B00025DDE910799A4693460446DDF873
:100F000048800095FFF728FF064694F83D0020280A
:100F10007CD11923012285492046009601F072FBFD
:100F20000028F5D194F83C0001286FD0012084F806
:100F30003C0020680168C90703D1016841F0010144
:100F400001602068016821F400610160222084F8BA
:100F50003D00402084F83E0025646762A4F82A9092
:100F6000608D20857248E062CDE9008653465A467E
:100F70002046049901F04EFA00287DD1208DDFF83B
:100F8000B491202768B1012814D002282068016894
:100F90001ED041F480610160206841698069009041
:100FA000B6E02068416981690091016841F40071EF
:100FB0000160ADE02068016821F48061016072B6D3
:100FC0002068416981690091016841F400710AE07B
:100FD00041F40061016072B6206841698169009145
:100FE000016821F48061016062B691E0032868D84D
:100FF00001280CD0022843464FF000024946204603
:1010000000960FD001F0FEFAB0BB10E08BE0324644
:101010004146204601F075FB70BB20680069616A9B
:1010200008706CE001F0EEFA30BB72B634E0206874
:10103000016821F48061016072B620680069616A0C
:101040000870606A401C6062208D401E2085608DA3
:10105000401E6085384846F2A8110068B0FBF1F0E8
:10106000C0EBC00000EB80000090401E009008D054
:1010700020684069C04300E029E040070CD5009893
:10108000F3E744F8305F6773A573206940F02000F0
:10109000206162B625731AE02068016841F400718E
:1010A000016020680069616A0870606A401C6062C3
:1010B000218D491E2185618D491E618562B6216899
:1010C0001BE032464146204601F01BFB18B10120CF
:1010D00007B0BDE8F08F20680069616A0870606A37
:1010E000401C6062218D491E2185618D491E6185EC
:1010F00021684A69D24352070AD409690170606ABB
:10110000401C6062208D401E2085608D401E6085E1
:10111000208D00287FF46AAF84F83D7084F83E503B
:1011200084F83C50D4E70220D2E70000020010000F
:101130000000FFFF04000100900000202DE9FF4F98
:1011400083B09A46DDE9119793460446DDF8408066
:10115000FFF702FE054694F83D0020287FD11923B1
:10116000012240492046009501F04CFA002876D132
:1011700094F83C00012872D0012084F83C002068DB
:101180000168C90703D1016841F0010101602068CD
:10119000016821F400610160212084F83D004020B5
:1011A00084F83E0000262664C4F82480A4F82A901F
:1011B000608D20852C48E062CDE9007553465A4683
:1011C0002046049901F0A4F970B930E02A46394666
:1011D000204601F0C9FA58B1206C042804D12068D7
:1011E000016841F400710160012007B0BDE8F08F93
:1011F000606A216800780861606A401C6062218D25
:10120000491E89B22185628D521E6285226853690A
:10121000DB435B070BD469B100781061606A401C46
:101220006062208D401E2085608D401E6085208D6F
:101230000028CBD12A463946204601F0BDF90028C6
:10124000CAD154F83D0B016841F4007101602020BF
:1012500004F81E09E67766770020C6E7FFE702205C
:10126000C3E70000020010000000FFFF10B586B0C9
:101270000021009101910291039100681349884275
:1012800022D1134CA06940F00800A061A069694612
:1012900000F0080004904FF440700090122001907C
:1012A000032003900B48FFF755FC0B48416841F0C1
:1012B000E06141F002014160E06940F40010E0614A
:1012C000E06900F40010049006B010BD0054004026
:1012D00000100240000C01400000014002488168FB
:1012E000027811448160704784000020074810B5DF
:1012F000016841F010010160032000F075F8002042
:1013000000F006F800F024F8002010BD0020024094
:1013100070B50D4D04464FF47A712878B1FBF0F0AA
:101320000A490968B1FBF0F000F0EDFA48B9102C59
:1013300007D200222146501E00F036F800206C60D3
:1013400070BD012070BD00008400002090000020CE
:101350000C4808B5816941F001018161816901F0A2
:1013600001010091C16941F08051C161C06900F083
:10137000805000900448416821F0E06141F0007124
:10138000416008BD0010024000000140002809DB58
:1013900000F01F02012191404009800000F1E0208F
:1013A000C0F8001170470000F0B40E4B1B680C46EB
:1013B000C3F30223C3F10705042D00D90425191D29
:1013C000072901D2002300E0DB1E012606FA05F101
:1013D000491E214099409E40761E16403143F0BC84
:1013E00002F0B0B80CED00E0064900F00702086812
:1013F0004FF6FF03184040EA0220034A10430860FA
:10140000704700000CED00E00000FA052DE9F04700
:101410000F46050061D0434E306800F00700B84227
:1014200009D2306820F0070038433060306800F09F
:101430000700B84251D128683B4C810712D54007BC
:1014400003D5606840F4E06060602878000703D549
:10145000606840F4605060606068A96820F0F00047
:10146000084360602878C00728D06868012810D039
:101470002168022810D0890700292EDA616821F03E
:10148000030101436160FFF767FC804641F2883940
:101490000DE021688903EFE78901EDE7FFF75CFCC8
:1014A000A0EB0801494502D90320BDE8F087606838
:1014B000696800F00C00B0EB810FEFD1306800F0EC
:1014C0000700B8420BD9306820F00700384330607D
:1014D000306800F00700B84201D00120E5E7287825
:1014E000400705D56068E96820F4E0600843606063
:1014F0002878000706D56068296920F4605040EA22
:10150000C100606000F038F86168084AC1F3031157
:10151000515CC8400649086006480068FFF7F8FEBD
:101520000020C2E700200240001002409046000860
:1015300090000020880000200448054900684968A0
:10154000044AC1F30221515CC8407047900000205A
:1015500000100240A0460008044805490068496898
:10156000044AC1F3C221515CC8407047900000207A
:1015700000100240A046000812A185B00FC98DE8F6
:101580000F0014A0144A006804905168134801F039
:101590000C03042B10D0082B0ED1C1F38343C903D5
:1015A0001DF803000AD5516804AAC1F34041515CFB
:1015B0000A4A5043B0FBF1F005B070470849484370
:1015C000FAE7000002030405060708090A0B0C0DE0
:1015D0000E0F1010010200000010024000127A00ED
:1015E00000093D002DE9F84F040070D02078C04D6F
:1015F000C00749D06868C0F38100012807D0686837
:10160000C0F38100022809D16868C00306D52868A4
:10161000800339D560680028E7D035E06068B0F510
:10162000803F0BD010B1B0F5A02F11D0286820F466
:1016300080302860286820F4802002E0286840F488
:1016400080302860606890B1FFF786FB06460AE0AC
:10165000286840F480202860F0E700BFFFF77CFB9B
:10166000801B642873D828688003F7D50CE0FFF747
:1016700073FB064605E000BFFFF76EFB801B642886
:10168000F0D828688003F7D420789A4E80074FF06E
:1016900001094FF0000839D5686810F00C0F07D029
:1016A0006868C0F38100022809D16868C00306D4C5
:1016B0002868800714D52069012808D110E0206926
:1016C000B0B1C6F80090FFF747FB074605E00AE116
:1016D000FFF742FBC01B0228C4D828688007F7D553
:1016E0002868616920F0F80040EAC10028600DE038
:1016F000C6F80080FFF730FB074604E0FFF72CFB3D
:10170000C01B022823D828688007F7D42078000758
:101710002CD57948A169D9B1C0F80090FFF71CFB1E
:10172000074604E0FFF718FBC01B02280FD8686AC1
:101730008007F7D571484FF4FA510068B0FBF1F01B
:10174000009000BF0098411E0091FAD20EE080E0A8
:10175000C0F80080FFF700FB074604E0FFF7FCFA43
:10176000C01B022875D8686A8007F7D42078400724
:1017700060D5E8690027C00008D4E86940F08050CF
:10178000E861E869012700F0805000905C4801683A
:10179000C90513D40168834641F480710160FFF7E5
:1017A000DBFA824606E000BFFFF7D6FAA0EB0A009C
:1017B00064284ED8DBF80000C005F5D5E0680128A4
:1017C0000AD008B1052813D0286A20F00100286249
:1017D000286A20F0040002E0286A40F00100286234
:1017E000E06841F2883B98B1FFF7B6FA82460BE019
:1017F000286A40F004002862EEE700BFFFF7ACFA69
:10180000A0EB0A0159455AD8286A8007F6D50CE0A2
:10181000FFF7A2FA824605E0FFF79EFAA0EB0A0165
:1018200059454CD8286A8007F6D41FB1E86920F0E2
:101830008050E861E06988B36968C1F381010229D9
:1018400044D00228C6F8608004D0FFF785FA044629
:1018500038E034E0FFF780FA074604E0FFF77CFA4F
:10186000C01B02282BD828688001F7D4206AB0F565
:10187000803F05D16868A16820F4003008436860A3
:10188000D4E908010843696821F4741108436860C9
:10189000C6F86090FFF760FA044606E025E000BF56
:1018A000FFF75AFA001B022809D828688001F7D5EB
:1018B0001BE000BFFFF750FA001B022802D90320EB
:1018C000BDE8F88F28688001F4D40EE00128F7D035
:1018D0006868226A00F48031914204D1616A00F4A0
:1018E0007010884201D00120EAE70020E8E70000FC
:1018F000001002400000424280044242900000205A
:1019000000700040704710B5401EB0F1807F01D3D9
:10191000012010BD4FF0E02460610F21601701F03D
:1019200011FE0020A06107202061002010BD10B52D
:10193000FFF7E8FF10BD70477047000070B590F8E2
:101940003C20012A26D0012480F83C40022280F865
:101950003D2003685A689D6822F070060A68324389
:101960005A600D4B02689A4208D0B2F1804F05D000
:101970000A4B9A4202D00A4B9A4204D1496825F098
:1019800080031943916080F83D40002180F83C10AD
:10199000084670BD022070BD002C014000040040CC
:1019A000000800402DE9F0410D46040003D094F8F2
:1019B0003D0018B108E00120BDE8F081002084F866
:1019C0003C00204600F040F8022084F83D002068EA
:1019D000816844F2070291438160211D206801F073
:1019E00075FB226890689169166A2B68AF6903439A
:1019F00040F20330814341EA0721A868EF690843B8
:101A00004FF6FC418843E96840EA07200143286912
:101A10002F6A000140EA0730084369686D6926F0C3
:101A2000220646EA0515294393602268906154F81E
:101A3000460B0162012004F81F09E0752076E0766C
:101A40002077A0750020B7E700B585B00021009190
:101A500001910291039101681A48B1F1804F1BD0A6
:101A6000194A914216D1C16941F00401C161C169AD
:101A700001F004010491816941F0080181618069EC
:101A8000694600F008000490C02000900F4800BF95
:101A9000FFF760F805B000BDC16941F00101C16107
:101AA000C16901F001010491816941F00401816182
:101AB0008069694600F00400049003200090044807
:101AC000E6E700000010024000080040000C014062
:101AD0000008014070B590F83E60044690F83F5011
:101AE00090F8423090F84320022021B104290ED012
:101AF000012E1BD114E0012E18D1012B16D184F830
:101B00003E0084F8420001220021206820E0012DDF
:101B10000CD1012A0AD184F83F0084F8430014E074
:101B2000012D03D1012B01D1012A01D0012070BD6B
:101B300084F83E0084F83F0084F8420084F84300B3
:101B400001220021206801F0F7FA01220421206817
:101B500001F0F2FA2068016841F001010160002003
:101B600070BD70472DE9F041054690F83C000C46E9
:101B7000012836D0012085F83C008AB3042A42D0DF
:101B80002868082A51D0D4E90023E168066A26F4BF
:101B900080560662C669076A26F4407646EA032341
:101BA0004FF6FF7606EA013123F4704319434FF4F0
:101BB000005627F4005306EA02321A43C16102625A
:101BC0002868C16921F44061C1612868C169A268BF
:101BD00041EA0221C161002085F83C00BDE8F081A6
:101BE00001E00220FAE7D4E90012E368286801F076
:101BF00053FB2868816921F00C01816128688169A3
:101C0000A26811430FE0D4E90012E368286801F0EC
:101C10006FFB2868816921F44061816128688169CE
:101C2000A26841EA02218161D5E7D4E90027267B39
:101C3000016A21F480710162C169036A21F0030124
:101C4000394321F0F00731074FF4007647EA11617C
:101C500023F4007306EA02221A43C1610262286873
:101C6000C16921F00C01C1612868C169A2681143F2
:101C7000B0E710B5040003D094F83D0010B107E0C0
:101C8000012010BD002084F83C00204600F01EF822
:101C9000022084F83D00211D206801F017FA012080
:101CA00084F8460084F83E0084F83F0084F8400041
:101CB00084F8410084F8420084F8430084F844002A
:101CC00084F8450084F83D00002010BD00B585B0C3
:101CD0000021009101910291039100681649884208
:101CE00027D11648816941F400618161816901F45D
:101CF00000610491816941F0040181618069694654
:101D000000F0040004904FF4006000900C48FEF7CF
:101D100021FF002211461920FFF746FB1920FFF78B
:101D200035FB002211461B20FFF73EFB1B20FFF76F
:101D30002DFB05B000BD0000002C0140001002404A
:101D40000008014070B50446006801694FF00005C5
:101D5000C943890715D4C168C943890711D4E91E4D
:101D6000016101202077206880698007204602D029
:101D7000FFF7F7FE04E000F0BFF8204600F062F93C
:101D8000257720680169C943490717D4C168C94349
:101D9000490713D46FF00401016102202077206805
:101DA000806910F4407F204602D0FFF7DAFE04E09D
:101DB00000F0A2F8204600F045F925772068016977
:101DC000C943090716D4C168C943090712D46FF083
:101DD00008010161042020772068C069800720463F
:101DE00002D0FFF7BEFE04E000F086F8204600F0C7
:101DF00029F9257720680169C943C90617D4C16844
:101E0000C943C90613D46FF010010161082020777F
:101E10002068C06910F4407F204602D0FFF7A1FE81
:101E200004E000F069F8204600F00CF925772068FE
:101E30000169C943C90708D1C168C943C90704D1A9
:101E4000891E0161204600F04DF920680169C943EF
:101E5000090609D4C168C943090605D46FF0800199
:101E600001612046FFF767FD20680169C943490603
:101E700009D4C168C943490605D46FF04001016126
:101E8000204600F030F920680169C94389060BD467
:101E9000C168C943890607D46FF02001016120465B
:101EA000BDE87040FFF748BD70BD000000B585B0CB
:101EB0000021009101910291039100680B49884231
:101EC00011D10B48816941F0040181618069694643
:101ED00000F004000490C0200090022001900390C4
:101EE0000448FEF737FE05B000BD000000040040C6
:101EF0000010024000080140704770B5044690F899
:101F00003C000D4601280AD0012084F83C0042B173
:101F1000042A18D0082A2AD00C2A4DD139E00220F0
:101F200070BD206801F016F92068816941F0080150
:101F300081612068816921F00401816120688169E3
:101F40002A69114311E0206801F02CF920688169A9
:101F500041F4006181612068816921F480618161BF
:101F6000206881692A6941EA0221816124E02068B0
:101F700001F044F92068C16941F00801C16120689D
:101F8000C16921F00401C1612068C1692A69114356
:101F900011E0206801F05EF92068C16941F4006138
:101FA000C1612068C16921F48061C1612068C16993
:101FB0002A6941EA0221C161002084F83C0070BD19
:101FC00010B5040003D094F83D0010B107E00120E3
:101FD00010BD002084F83C00204600F01FF80220CD
:101FE00084F83D00211D206801F070F8012084F87C
:101FF000460084F83E0084F83F0084F8400084F8EE
:10200000410084F8420084F8430084F8440084F8D6
:10201000450084F83D00002010BD000008B50068B0
:102020000649884208D10648C16941F00201C161F0
:10203000C06900F00200009008BD000000040040EC
:10204000001002407047000010B50446022249B15A
:1020500004290ED0082913D094F84100012816D085
:10206000012010BD94F83E000128F9D184F83E20EB
:102070000FE094F83F000128F2D184F83F2008E0F7
:1020800094F840000128EBD184F8402001E084F866
:1020900041200122206801F04FF80F492068884252
:1020A00003D1426C42F4004242642068884208D066
:1020B000B0F1804F05D00949884202D008498842D2
:1020C00004D1816801F00701062903D0016841F0BD
:1020D00001010160002010BD002C014000040040FF
:1020E00000080040704770477047000070B50268F4
:1020F00004461068D168536910F00F0F53D003F0F5
:10210000010501F490762E435FD0C20705D0CA05C1
:1021100003D5E26B42F00102E263420705D5DA071C
:1021200003D0E26B42F00202E263820705D5DA07D0
:1021300003D0E26B42F00402E263020707D501F02C
:1021400020022A4303D0E26B42F00802E263E26B12
:10215000002A34D0800604D5880602D5204601F036
:10216000F8F820684069E16BC0F3801001F00801C5
:102170000143204624D001F0DEF820684169490679
:102180001AD5416921F040014161606BA0B12D4930
:102190004163606BFEF780FC002810D0606B416BE0
:1021A000BDE87040084783060FD58B060DD5204645
:1021B000BDE8704001F0CDB82046FFF795FF70BD37
:1021C000FFF792FF0020E06370BD03062BD50B06DE
:1021D00029D594F839002128F6D1A068B0F5805FA0
:1021E00001D12069B0B1206A411C216221680078C8
:1021F0004860E08C401E0004000CE084E4D12068BC
:10220000C16821F08001C1602068C16841F04001CF
:10221000C16070BD206A0088C0F308005060206A69
:10222000801C2062E5E74006F3D54806F1D5D16869
:10223000204621F04001D160202184F8391000F0BF
:10224000D0F870BD2733000870B5040004D094F8AE
:102250003900002510B106E0012070BD84F8385027
:10226000204600F023F8242084F839002068C16853
:1022700021F40051C160204601F0B2F820680169E4
:1022800021F4904101612068416921F02A014161F6
:102290002068C16841F40051C160E563202084F8E2
:1022A000390084F83A00002070BD000030B585B0D8
:1022B0000024009401940294039400681849884211
:1022C0002CD11848816941F480418161816901F410
:1022D00080410491816941F0040181618069124D5E
:1022E00000F0040004904FF4007000900220019070
:1022F0000320039069462846FEF72CFC2815CDE9FB
:102300000004694628460294FEF724FC0022114688
:102310002520FFF749F82520FFF738F805B030BD34
:1023200000380140001002400008014070470000E2
:102330002DE9F843044690F839001F4616460D462D
:1023400020284CD1C5B1BEB194F83800012846D040
:10235000012084F838004FF00008C4F83C802120A8
:1023600084F83900FEF7F8FCA6848146E684A0686C
:10237000B0F5805F03D004E00120BDE8F883206958
:1023800028B12E465FF0000584F838800EE0002664
:10239000FAE78021204601F07FF8A0B9AEB116F827
:1023A000010B21684860E08C401EE084E08C4B46C5
:1023B0004FF0000200970028EBD14FF0400120467B
:1023C00001F06AF830B10320D7E735F8020BC0F30B
:1023D0000800E6E7202084F839000020CDE702203D
:1023E000CBE77047FEE701684A69D24352050FD434
:1023F0006FF480624A61002140F8301F202242734E
:102400008173026942F00402026101730120704786
:10241000002070472DE9F84F0446006889460B9D5F
:1024200001689846174641F48061016020680168A0
:1024300041F48071016000954FF0011B0022594664
:1024400020460A9B00F0DEF84FF4007A40B1206885
:102450000068C00501D5C4F840A00320BDE8F88F8E
:10246000216809F0FE0008612B46284920460A9A97
:1024700000F0FCF8F0BB20684169806900902A46B2
:1024800020460A9900F070F940B1206C04283AD136
:102490002068016841F40071016034E0FEB2B8F1D7
:1024A000010F09D02168380A08612A4620460A9996
:1024B00000F05AF90028E8D1206806612A46204633
:1024C0000A9900F051F90028DFD12068016841F431
:1024D0008071016000950022594620460A9B00F059
:1024E00091F80028B3D1216809F0FF0040F0010005
:1024F000086100E007E02B46044920460A9A00F0F4
:10250000B5F80028AAD00120A8E7000002000100C9
:102510002DE9F843044600680D46DDE90897016897
:102520009846164641F4807101604B4600224FF0F8
:1025300001112046009700F065F848B12068006856
:10254000C00502D54FF4007020640320BDE8F88375
:10255000216805F0FE0008613B464A4615492046C1
:1025600000F084F888B920684169806900903A4693
:102570004946204600F0F8F848B1206C042804D100
:102580002068016841F4007101600120DEE7F5B2C6
:10259000B8F1010F09D02168300A08613A4649466E
:1025A000204600F0E1F80028E7D12068056100200E
:1025B000CCE700000200010070B516460D46044647
:1025C0000DE02046FFF70FFF08B1012070BD681C29
:1025D00005D0FEF7C1FB801BA84207D835B12068A3
:1025E0004069C0434007ECD4002070BD002044F88F
:1025F000300F20216173A073216941F02001216116
:102600002073E2E72DE9F0471E4690460D4604464A
:10261000C1F30747DDF8209008E0701C06D0FEF7F4
:102620009BFBA0EB0900B0420FD876B12068012FC8
:1026300018D0806925EA00000004000C14D00021A5
:102640004145EAD00020BDE8F087002044F8300F73
:1026500020216173A073216941F020012161207361
:102660000120F0E74069E5E70121E9E72DE9F047BE
:102670009A4691460E46044600254FF02008C1F3C5
:10268000074725E020684069C043400514D420680E
:10269000016841F40071016021686FF48060486155
:1026A000256384F83D8084F83E50206C40F004009F
:1026B000206484F83C501FE0B9F1FF3F08D0FEF7DA
:1026C0004BFBA0EB0A0149450CD8B9F1000F09D02A
:1026D0002068012F13D0806926EA00000004000C56
:1026E0000BD0CFE744F8305F84F80D80A5732069E4
:1026F00040F02000206125730120BDE8F08740698B
:10270000EAE72DE9F041002590460E4604462027D1
:1027100017E04069C043C0060CD454F8301B6FF07A
:102720001000486144F810596777A577206A206245
:10273000257717E0FEF710FBA0EB0800B04208D8A1
:102740003EB120684169C9434906E2D40020BDE892
:10275000F08144F8305F6773A573206940F0200072
:10276000206125730120F2E770B516460D46044638
:102770000DE02046FFF737FE08B1012070BD681C50
:1027800005D0FEF7E9FA801BA84207D835B12068CA
:102790004069C0430006ECD4002070BD002044F81E
:1027A000300F20216173A073216941F02001216164
:1027B0002073E2E77CB514460D4606466A460621BC
:1027C0003B2000F07DF800280BD1BDF8001049BA7D
:1027D0003180BDF8021049BA2980BDF8041049BA09
:1027E00021807CBD7CB514460D4606466A4606210E
:1027F000432000F065F800280BD1BDF8001049BA5D
:102800003180BDF8021049BA2980BDF8041049BAD8
:1028100021807CBD10B51C48FEF7A4FA80216B20F6
:1028200000F098F800216B2000F094F8032000F0ED
:102830005CF8002000F054F8322000F073F800211A
:10284000382000F087F800216A2000F083F800218A
:10285000232000F07FF88021372000F07BF87520DE
:1028600000F014F8682801D0012010BD01216B2070
:1028700000F070F800216C2000F06CF8322000F0BD
:1028800051F8002010BD0000980000201FB5002165
:102890008DF80C1040F6FF73012203A98DE80E009D
:1028A00013460246D1210548FEF720FB6420FEF7BF
:1028B0003FF99DF80C0004B010BD00009800002006
:1028C0000EB540F6FF730092CDE9011302460123D5
:1028D000D1210248FEF70AFB00200EBD980000201F
:1028E000C006010E1C2000F035B8C006010E1B20EA
:1028F00000F030B8BC2801D3012110E0622801D3D8
:1029000002210CE02A2801D3032108E0142801D376
:10291000042104E00A2801D3052100E006211A2041
:1029200000F018B810B504464FF47A70844201D90B
:10293000044602E0042C00D20424B0FBF4F0401E54
:10294000C1B2192000F006F86008BDE81040FFF79A
:10295000D1BF00001FB540F6FF738DF80C100122A7
:1029600003A98DE80E0013460246D0210448FEF765
:10297000E5FB6420FEF7DCF804B0002010BD000089
:10298000980000202DE9F04385B000243A480094D7
:10299000019402940394816941F01001816181697D
:1029A00001F010010491816941F020018161816988
:1029B00001F020010491816941F004018161816984
:1029C00001F004010491816941F00801816180698D
:1029D0002A4F00F008004FF40055049000222946C9
:1029E0003846FEF7B4F9DFF8989000221C214846DB
:1029F000FEF7ADF9DFF88C8000224FF2030140466C
:102A0000FEF7A5F90095022601250396CDE90154AC
:102A100069463846FEF79EF804200327CDE90005F5
:102A2000CDE9024769464846FEF794F81820CDE9FB
:102A30000005CDE9024669464846FEF78BF84EF29E
:102A40000300CDE90005CDE9024669464046FEF7A0
:102A500081F82803CDE90005CDE9024769464046E3
:102A6000FEF778F828028DE8310069464846FEF7FF
:102A700071F805B0BDE8F08300100240001001407D
:102A800000080140000C01400D4810B50B490160E1
:102A90000C49416000214FF480428160C0E903127B
:102AA00041618161C1610162FEF75CF9002803D0D8
:102AB000BDE81040FDF7C1BF10BD0000005400404C
:102AC00098000020A086010010B586B000241948A7
:102AD00005940494009401940294154903940160B0
:102AE0004721C0E901144FF6FF71C0E903144461A6
:102AF0008461FFF7BEF808B1FDF79FFF049404A9B5
:102B00000C480594FEF71AFF08B1FDF796FF012067
:102B1000CDE9004002940C22694606480394FFF771
:102B200021F8002801D0FDF788FF06B010BD000095
:102B3000002C0140EC00002010B58CB02421684628
:102B4000FDF707FB0024154809944FF080410A94D3
:102B5000C0E900144FF6FF71C0E9024104618461CD
:102B60000320CDE900040120CDE902040494CDE95D
:102B700005400794694609480894FEF713FF08B119
:102B8000FDF75BFF099409A904480A94FEF7D6FEF5
:102B9000002801D0FDF751FF0CB010BD340100201A
:102BA00010B58AB0002407941C2168460894FDF7EC
:102BB000D0FA1B48194901600321C0E901144FF400
:102BC0007A71C0E903148461FFF7FAF908B1FDF7DF
:102BD00034FF079407A912480894FEF7AFFE08B126
:102BE000FDF72BFF602000906420CDE90104002256
:102BF00069460B480494FFF780F908B1FDF71DFF03
:102C0000042269460648FFF778F908B1FDF715FF79
:102C10000348FFF74BF90AB010BD00000004004064
:102C20007C01002010B58CB024216846FDF791FA94
:102C300000241648099414490A94C0E900144FF678
:102C4000FF71C0E90241046184610320CDE9000401
:102C50000120CDE902040494CDE9054007946946BA
:102C60000A480894FEF79EFE08B1FDF7E6FE0994B7
:102C700009A906480A94FEF761FE002801D0FDF775
:102C8000DCFE0CB010BD000000080040C4010020B4
:102C90000C4810B50A4901604FF4E1314160002150
:102CA00081600C22C160C0E904128161C161FFF73B
:102CB000CBFA002803D0BDE81040FDF7BEBE10BD22
:102CC000003801400C020020FEE700002DE9F0472B
:102CD000174CD4E91001FDF799FAA063E063FDF702
:102CE000C4FC01464FF47A76124D8946B04200DDAD
:102CF000A563A06BFDF7B9FCDFF83C800F4F4045A2
:102D000000DAA763B14500DDE563E06BFDF7ADFCDC
:102D1000404500DAE763E06BFDF7A7FC0546A06BD2
:102D2000FDF7A3FC2946BDE8F04700F099B8000084
:102D30000C00002000007A4418FCFFFF00007AC459
:102D4000704700002DE9F04186B000241D48009432
:102D5000019402940394816941F0080181618169C1
:102D600001F008010491816941F0100181618069DD
:102D7000154F00F010004FF4005504900022294632
:102D80003846FDF7E4FFDFF8448000224FF470413D
:102D90004046FDF7DCFF0095022601250396CDE9AC
:102DA000015469463846FDF7D5FE4FF46040CDE941
:102DB0000005CDE9024669464046FDF7CBFE06B068
:102DC000BDE8F0810010024000100140000C0140FD
:102DD000F0B58DB000200A900B90089009900590F6
:102DE00006901C4F0390049000900190044608AE9A
:102DF00003AD029057F82400FDF737FC46F8240095
:102E000045F82400641CE4B2042CF3D300206C4683
:102E100035F8201004F8101004EB4002090A401C99
:102E2000C0B251700428F3D308212046FDF7C6FD37
:102E30008DF80800000A8DF8090000256119FF23AC
:102E400001220548FFF774FA6D1CEDB20A2DF5D387
:102E50000DB0F0BD4C0200200C02002070477047FE
:102E60002DE9F0411E4F1F4E0C0005460DD50122E5
:102E700011463846FDF76BFF002202213846FDF768
:102E800066FF3168604248630BE00022012138464A
:102E9000FDF75DFF012202213846FDF758FF30683B
:102EA0004463114C002D0EDA012208212046FDF763
:102EB0004EFF002210212046FDF749FF316868428D
:102EC0008863BDE8F081002208212046FDF73FFF1E
:102ED000012210212046FDF73AFF30688563F0E7B4
:102EE000000C01407C010020000801402DE9F04168
:102EF000294CDFF89C80274FD4E91801084400EBE7
:102F0000D0704010FDF797FB002161662166FDF748
:102F1000C5FB4FF03332214BFDF795FA05460E46BF
:102F2000A06DFDF7BBFB4FF066321D4BFDF78BFA32
:102F30002A463346FDF7E0F9FDF7C3FB606580F0F4
:102F40000045A0652946E06DFDF70EF9E065FDF747
:102F50008CFBB0F5617F01DCE06D01E01148E065BC
:102F6000FDF783FB10F5617F01DA0F48E065A06C87
:102F7000E0643946E06DFDF74FF9064641462846C4
:102F8000FDF74AF93146FDF7EFF8A064BDE8F0819E
:102F9000000044411B2FDD3D0C0000203333D33FA4
:102FA0006666E63F00006144000061C470B50B4CEA
:102FB000E16CA06C0E46FDF729F90546206D401C1A
:102FC000FDF739FB2946FDF727F90549FDF756F9C5
:102FD0003146FDF7C9F8606470BD00000C000020A8
:102FE0000000C84170B51C4C1C4D2068401C20607E
:102FF0002868401C2860FFF7D9FF206800260528B4
:1030000003D32660FDF71AFD1DE0012806D0022833
:1030100009D003280AD0042813D014E0FDF72CFDB2
:10302000FDF732FC0FE0FDF78BFC0CE00C4C206848
:10303000401C2060052806D3FFF758FF26602E604D
:1030400001E0FFF743FEFDF797FCFEF747F9BDE807
:103050007040FEF76CBC0000740000205C00002093
:103060007800002030B58FB028216846FDF771F850
:1030700014210AA8FDF76DF801210804CDE900101C
:103080000024029402250491CDE907504FF4E0108A
:1030900009906846FEF7A6FA0F20CDE90A056802F6
:1030A000CDE90C4002210AA80E94FEF7AFF90FB04B
:1030B00030BD70470148FEF745BE0000EC0000201F
:1030C0000148FEF73FBE0000EC000020F0B50268AA
:1030D000164B174C174D4FF08047984205D0B84219
:1030E00003D0A04201D0A84203D122F070064A6862
:1030F0003243984205D0B84203D0A04201D0A84242
:1031000003D122F44074CA6822434C6922F0800241
:10311000224302608A68C2620A688262984201D1D0
:103120000969016301214161F0BD0000002C0140EB
:10313000000400400008004010B501F01F03012109
:10314000046A99408C430462016A9A401143016207
:1031500010BD000030B5026A22F001020262026A6C
:103160004368846924F073050C682C4322F002053F
:103170008A682A430A4DA8420BD122F00805CA6882
:1031800023F440732A434D6922F004021D438B69E6
:103190002B434360846149684163026230BD000093
:1031A000002C014030B5026A22F010020262026A6D
:1031B000436884690D6824F4E64444EA05248D6874
:1031C00022F0200242EA05120B4DA8420ED1CD6832
:1031D00022F0800242EA05124D6923F4406343EA7B
:1031E00085038D6922F0400243EA850343608461D0
:1031F00049688163026230BD002C014030B5026A2B
:1032000022F480720262036A4268C46923F4007384
:1032100024F073050C682C438D6843EA05230C4D9C
:10322000A8420ED1CD6823F4006343EA05234D691B
:1032300022F4405242EA05128D6923F4806342EA87
:1032400005124260C4614968C163036230BD000079
:10325000002C014030B5026A22F480520262046AF6
:103260004268C3690D6823F4E64343EA05238D6889
:1032700024F4005444EA0534064DA84204D14D69B3
:1032800022F4804242EA85124260C36149680164C7
:10329000046230BD002C014070B5046A24F00104C2
:1032A00004628469056A0F4EB04208D0B0F1804FC5
:1032B00005D00D4EB04202D00C4EB04203D124F0E6
:1032C0000304144301E044F001041A0724F0F0045D
:1032D00044EA126225F00A0301F00A0119438261EF
:1032E000016270BD002C0140000400400008004055
:1032F00030B5046A24F0100404628469056A24F479
:10330000407444EA022222F470444FF6FF7202EA4B
:1033100003322243A02425F0A00304EA011119433B
:103320008261016230BD10B5406A0021C185C1844F
:10333000FEF7DAFE10BD0168CA6822F49072CA6016
:1033400001684A6922F001024A61202180F83A109E
:10335000704710B590F83A10222901D0022010BD14
:1033600082684FF480539A4201D1016921B1816A88
:103370009A421BD04AB10AE00268816A5268C2F3DD
:1033800008020A80816A891C08E0026972B1026839
:10339000526802F07F020A70816A491C8162C18D05
:1033A000491E0904090CC18503D016E00268526861
:1033B000F1E70168CA6822F02002CA600168CA68A1
:1033C00022F48072CA6001684A6922F001024A61EF
:1033D000202180F83A10FEF7A9FF002010BD000060
:1033E00070B5044600680169E26821F44051114358
:1033F00001612169A0680843616908432168CA68BE
:1034000041F20C639A430243CA6020684169A26991
:1034100021F44071114341611E492068884202D164
:10342000FEF79AF801E0FEF787F800EBC00101EB28
:103430000012606864218000B2FBF0F3B3FBF1F38B
:103440006FF018067343B2FBF0F5B2FBF0F605EB34
:103450008305322303EB0515B5FBF1F5B6FBF1F659
:1034600005F0F00505EB0615B2FBF0F6B2FBF0F047
:10347000B0FBF1F06FF01802504306EB800003EB55
:103480000010B0FBF1F0216800F00F0028448860C4
:1034900070BD0000003801402DE9F0419846174604
:1034A0000E460446069D1DE0681C1BD02DB1FDF79D
:1034B00053FCA0EB0800A84214D92068C16821F48D
:1034C000D071C1602068416921F001014161202073
:1034D00084F8390084F83A00002084F8380003208A
:1034E000BDE8F0812068006836EA000004D00020C2
:1034F000B842D9D00020F3E70120F9E70148FEF7F0
:10350000F5BD00000C020020FEE70000014A024960
:1035100000F099B8093A000894000020490050EAE8
:10352000C12018BF04204A0D18BF40F0010040F22E
:10353000FF72B2EB515F08BF40F00200012808BFE4
:10354000052070470907090E002804DB00F1E02080
:1035500080F80014704700F00F0000F1E02080F8C0
:10356000141D70472DE9F0414F1E00EBC7010446C2
:10357000D1E9000115461E4637F006020DD02A4655
:103580003346FCF760FF7F1E04EBC703D3E900233B
:10359000FCF7B2FE37F00602F1D1022F25D0042F3E
:1035A00013D0062F18BFBDE8F0812A463346FCF73A
:1035B0004AFFD4E90A23FCF79FFE2A463346FCF76C
:1035C00042FFD4E90823FCF797FE2A463346FCF76E
:1035D0003AFFD4E90623FCF78FFE2A463346FCF770
:1035E00032FFD4E90423FCF787FE2A463346FCF772
:1035F0002AFFD4E90223FCF77FFE2A463346FCF774
:1036000022FFD4E90023BDE8F041FCF775BE01229A
:10361000FCF7FABFFCF770BE024A00201107FCF766
:10362000F3BF000001FDFFFF02E008C8121F08C140
:10363000002AFAD170477047002001E001C1121F33
:10364000002AFBD170472DE9F04116460F4604468B
:10365000002503E03946B047641C6D1C2078002823
:10366000F8D12846BDE8F0812DE9F84F04460D4613
:1036700021F0004000917349814211DC7249884277
:1036800001DC06D12CB120462946BDE8F84FFFF7F2
:10369000BEBF6E48002DCCBF6D496E49BDE8F88FA6
:1036A0006D49814211DD6D498142D8BF4FF0FF362F
:1036B0006DDD20462946FFF731FF042808BFFFF7DC
:1036C000ABFF20462946BDE8F88F6549654F25F0D8
:1036D0000045814233DD6449814219DD00263246CE
:1036E0004FF0804320462946FCF706FE80468A4676
:1036F000012220462946FCF787FF00223B46FCF7C3
:103700009CFE42465346FCF710FF04460D463EE041
:1037100001260022BA463B4620462946FCF7ECFD2E
:1037200080460F460022534620462946FCF785FE78
:1037300042463B46FCF7F9FE04460D4627E04B495E
:1037400081421BDDDFF828A10226002253462046D5
:103750002946FCF778FE00223B46FCF7CDFD80466B
:103760000F460022534620462946FCF766FE424695
:103770003B46FCF7DAFE04460D4608E003262246E7
:103780002B4600203B49FCF7D0FE04460D4622465E
:103790002B4610461946FCF756FE8B4682460246DB
:1037A0000B46FCF750FE07460246334888460B4658
:1037B00006217844FFF7D6FE52465B46FCF743FEEF
:1037C00082462E488B463A46434605217844FFF709
:1037D000C9FE3A464346FCF736FE02460B46002E2B
:1037E000504659460CDAFCF787FD22462B46FCF77B
:1037F0002AFE01B022462B46BDE8F04FFCF720BE62
:10380000FCF77AFD22462B46FCF71DFE1C4A7A4443
:1038100002EBC603D3E90023FCF70FFE22462B463A
:10382000FCF70BFE174A7A4402EBC603D3E90023E8
:10383000FCF706FE009A002AB8BF81F00041BDE8FF
:10384000F88F0000000010440000F07F182D445451
:10385000FB21F93FFB21F9BF0000DC3F0000203EC7
:103860000000F33F0000F03F0000E63F008003400F
:103870000000F83F0000F0BF5A0F0000180F0000D2
:10388000B60E00007E0E00002DE9F04D9446CCF1FE
:10389000000423F000464CEA0404524F46EAD47474
:1038A0009A46884621F00042BC4206D8454240EA8A
:1038B000050442EAD474BC4204D9BDE8F04D624626
:1038C000FFF7A8BEAAF14055A5F17F6555EA0C04A3
:1038D0000BD0022404EAAA74434DDFF810E144EA55
:1038E000D87452EA000B04D00CE0BDE8F04DFFF7AD
:1038F000BBBE002C14BF012CBDE8F08D022C30D0D3
:10390000032C32D056EA0C0B0AD0BE4220D1BA4268
:1039100009D126F0804622F080423346114617E056
:1039200000291ADB25E0DFF8C8B0FB44002C04BFF7
:10393000DBE90001BDE8F08D012C02BFDBE90001ED
:1039400081F00041BDE8F08D022C0AD0032C0CD090
:10395000BA4212D1B8F1000F0BDA23482549BDE86D
:10396000F08D28462449BDE8F08D28467146BDE813
:10397000F08D1D482149BDE8F08D921B12153C2A9F
:10398000C4BF19481D490EDCBAF1000FBEBF12F1C9
:103990003C0F0020014606DB6246FCF7C6FD21F025
:1039A0000041FFF761FE002C08BFBDE8F08D012C3F
:1039B00004BF81F00041BDE8F08D114A114B022C8B
:1039C00007D0FCF73AFD2A46BDE8F04D0A4BFCF75C
:1039D00034BDFCF732FD2A46BDE8F04D064BFCF73E
:1039E0002FBD00000000F07F182D4454FB2109C0BA
:1039F000120E0000FB21F9BFFB210940FB21F93F1A
:103A0000075C143326A6A13C13B54FF6FF730122C1
:103A100069460248FEF78CFC00981CBD0C02002091
:103A2000A6B0FDF763FCFFF71DFBFEF7ABFFFFF74A
:103A30002FF9FFF781F8FFF7F5F8FFF7B1F8FFF777
:103A400023F8FFF741F83C213248FEF743F83C21C8
:103A50003148FEF73FF800213048FEF7F5FA304FC5
:103A6000002201213846FDF772F900220221384672
:103A7000FDF76DF904212948FEF7E6FA294D0022E9
:103A800008212846FDF763F9002210212846FDF79A
:103A90005EF9FEF7BFFE10B923A0FFF737FD294BF3
:103AA000294A2A4901A800F043F901A800F01AFBAD
:103AB000002101A800F026FB254E0F2501A800F0EB
:103AC00049F8641C202C00DB0124A3B220224021F1
:103AD00001A8009500F047F82022A3B2114601A8E2
:103AE000009500F040F8A3B22022602101A80095C3
:103AF00000F039F801A800F0DCF83068012805D1A1
:103B000001033846FDF71BF900203060FFF760F92C
:103B1000D4E70000C4010020340100207C01002013
:103B2000000C0140000801404D50552D3630353015
:103B300020496E6974205375636365737366756C91
:103B40006C790000014500086D41000870450008CF
:103B50000800002001680A7C90F83810406B51433F
:103B6000C900FCF7F6BA2DE9F8431C468046101947
:103B7000401C80B200900819401C83B21546101BEF
:103B800082B20E46081B81B2089F404600F079F8C9
:103B9000002806D023462A4631464046009700F0CA
:103BA00038F9BDE8F88300003FB581B0044690F8CD
:103BB0008C00089900283AD0BDF81000002836D0B3
:103BC000012811D9022902D0032907D00CE0BDF841
:103BD0000820101A401CADF8080005E0BDF80C20C4
:103BE000101A401CADF80C0011F0010521D0B4F8FA
:103BF0004810BDF80800814219D8B4F84A10814233
:103C000015D9B4F84E30B4F84C2004A90DF10C00CD
:103C100000F0E1F800280AD00095206BBDF81030C4
:103C2000BDF80C208568BDF808102046A84705B0EF
:103C300030BDB4F84C10BDF80C008142F7D8B4F890
:103C40004E108142F3D9B4F84A30B4F8482004A9A0
:103C500002A8DDE708B5B0F84C30934210D8B0F8B0
:103C60004E3093420CD9B0F848308B4208D8B0F8A7
:103C70004A308B4204D9002300930123FFF794FFBD
:103C800008BD70B50D461E460446B0F84E10B0F89B
:103C90004C00049B00F060F9002809D0B4F84A10E9
:103CA000B4F8480033462A46BDE8704000F054B9E5
:103CB00070BD10B5044600F0A9F92046BDE81040DB
:103CC00000F018BA0149C16570470000553F00086F
:103CD0000021A0F85010A0F854104FF6FF71A0F882
:103CE0005210A0F85610016B4968084770B5044699
:103CF00000250498A565E362616384F8382084F8A0
:103D0000395084F86D5084F89150012184F8921054
:103D100084F8931020630168204688472046FFF707
:103D2000D7FF2046FFF7CEFF84F8705070BD00002B
:103D30007CB50C46009313460546084A084900F036
:103D4000E9F901A800F05CF90146064B00949DF8E2
:103D500004202846FFF7CAFF7CBD0000754200081A
:103D6000ED430008713F000838B50446B0F856002E
:103D70000090B4F85230B4F85420B4F850102046F3
:103D8000FFF77FFF18B3012084F88C00B4F84810C7
:103D9000B4F85000814201D2A4F84800B4F84A10A7
:103DA000B4F85200814201D9A4F84A00B4F84C108A
:103DB000B4F85400814201D2A4F84C00B4F84E107B
:103DC000B4F85600814201D9A4F84E0038BD002055
:103DD00084F88C0038BD30B504880D882544ADB218
:103DE000AC4205D99C4202D25D1EADB200E0144641
:103DF0009C4201D2954201D8002030BD944200D2AD
:103E000014469D4200D91D460480281B08800120CD
:103E100030BD2DE9FF4FC3F1010083B006B2584217
:103E20009146DDF840A040008B4601271C46CDE9B5
:103E3000009A00250FFA80F85B462246294615E0D5
:103E4000002E08DB08F102000FFA80F8641E06EB72
:103E50000800A4B206B26D1CBF1C3FB2CDE9009AA7
:103E6000ADB2F01906B25B4622462946039800F02F
:103E700005F8A542E4D307B0BDE8F08F2DE9FF4F68
:103E800083B00E46DDE9108703EB0600029015466D
:103E9000A8EB0600019003EB05001C46F907A8EB10
:103EA000050B00900DD002981FFA8BF281B2039897
:103EB000FFF7D0FE019882B2009881B20398FFF715
:103EC000C9FEB907A4EB060AA4EB05090DD51FFA34
:103ED0008BF21FFA8AF10398FFF7BCFE01981FFAD4
:103EE00089F182B20398FFF7B5FE08EB05043907A4
:103EF00008EB06050BD50298A2B281B20398FFF732
:103F0000A9FE0098AAB281B20398FFF7A3FE780732
:103F10000ED5A2B21FFA8AF10398FFF79BFE039811
:103F200007B0AAB21FFA89F1BDE8F04FFFF792BEC1
:103F300007B0BDE8F08F38B5C58F049C0094521BC4
:103F4000C46A92B2A04738BD38B5049C0094FFF70C
:103F5000F2FF38BD002070478A4205D2834201D863
:103F60009A4203D9012070478342F9D80020704754
:103F7000F0B502F007060124B440002590F892E065
:103F8000E7B2DDF814C02C46BEF1010F01D83D4662
:103F900000D03C46076822F00702BCF1000F3F7CCE
:103FA00007FB02F7BAB2476B3A44114409D10878CB
:103FB0005B1E284360401B0401F8010B1B0CF6D16B
:103FC000F0BD0A78761C2A436240A3F101030A700F
:103FD00016F007069BB206D06A06150E6206140E8E
:103FE000002BEED1F0BD428F114490F89220012AAF
:103FF00002D84FF00105F3D04FF00104F0E70000C4
:1040000008210170004870475C0200202DE9F84348
:10401000064690F8387090F83950006800244FF642
:10402000FF7890F81190316830462A460B7C716B0E
:1040300004FB03FC1FFA8CFC08EACC0C61440091E1
:10404000002100F040F8641C6D1CE4B2EDB2BC42EB
:1040500001D24D45E7D3BDE8F883F0B590F838209C
:104060004FF6FF75036805EAC2018187197C05EAEE
:10407000C101418790F8394005EAC401C1875E7CDF
:10408000A718B74201D9321B92B205EAC20220F842
:10409000401F11444180998A8180D98AC180F0BD36
:1040A000FFF7DBBF0021A0F84810B0F84410A0F8DB
:1040B0004A10B0F84010A0F84C10B0F84210A0F828
:1040C0004E10FFF751BE1CB58DF805108DF8062077
:1040D000049C8DF804300094012284686B460F2103
:1040E000A0471CBD30B484680023A44630BC1A46E7
:1040F0000A21604730B484680023A44630BC1A46C5
:104100001021604730B484680023A4460A4630BCBE
:104110000B2160472DE9F04115460E460446069FE7
:1041200000F00AF86761A660C4E903532046BDE8C1
:10413000F04100F013B80000002140F8081B064AC7
:10414000026042608260C260C17681770161FF21B6
:10415000017780F820107047F144000830B484687B
:104160000023A44630BC1A46092160472DE9F047D8
:104170000446006890461829027B02F00109C9F143
:10418000010A50D004DC14293CD0172904D106E0E0
:10419000192956D0202940D00020BDE8F0871D46BF
:1041A0002CE000BF15F8017BA8F1010000F0FF082A
:1041B0000026380601D5012200E0002241212046D8
:1041C00000F098F97806070E52464021204600F08C
:1041D00091F920682C218279204600F08BF94A461B
:1041E0004021204600F086F920682C21C279204623
:1041F00000F080F9761CF6B2082EDAD3B8F1000F81
:10420000D0D11CE042784921204600F073F92068A3
:104210004021007B00F0010201E042464A21204695
:1042200000F068F90BE002784921204600F062F9BD
:1042300020680023656982782C212046A847012048
:10424000ABE7C278002365692C212046A847206887
:1042500049214278E3E713B50122046901AB172134
:10426000A0471CBD30B404690023A4460A4630BCF4
:10427000202160472DE9F0410546A1F114001F46B9
:1042800016460C4606281CD2DFE800F01203030E87
:10429000121200212846FFF7E5FF31462846FFF7B6
:1042A000DAFF0120BDE8F08101212846FFF7DAFF9F
:1042B0003B46324621462846D5F810C0BDE8F041BD
:1042C00060470020EEE730B4C4680023A44630BC49
:1042D0001A461921604730B4C4680023A4460A4630
:1042E00030BC1621604730B4C4680023A4460A4697
:1042F00030BC1521604730B4C4681346A4460A4652
:1043000030BC172160470000F8B50C464FEA0005A5
:1043100014F8011B182924D00EDC152919D01629F0
:1043200017D0172923D120788DF800006A46012183
:104330002846FFF7E0FF0AE0192912D0FE2916D11E
:1043400022788DF800202921284600F0D3F8641C3B
:10435000DEE722788DF80020EE6800232846B0477B
:10436000F5E70023EE681A462846B047D0E7F8BDC7
:1043700030B4C4680023A44630BC1A4618216047F4
:1043800070B50023456904461A462821A847002332
:10439000E5681A4614212046A84701224B212046F1
:1043A00000F0A8F8206829210279204600F0A2F840
:1043B00000224B21204600F09DF820682921027937
:1043C000204600F097F801224B21204600F092F899
:1043D0002068292142792046BDE8704000F08AB863
:1043E0000160897C80F822107047000070B50C468F
:1043F000054600F019F890B9092C0BD00A2C01D011
:10440000002070BD2846FFF7BBFF06492846FFF78E
:104410007BFF04E003492846CC31FFF7E1FF012090
:1044200070BD0000944500082DE9F0411E46144679
:1044300005460B2908D00D290ED00E291ED00F29B4
:1044400027D00020BDE8F0811AB12849FFF75CFFB2
:104450004AE02649491FF9E74AB124490C31FFF7E0
:1044600053FF286890F8130085F822003CE01F49AC
:10447000491DFFF749FF2868807CF5E7FFF778FFC3
:1044800081212846FFF72FFF21462846FFF723FF0B
:1044900027E0FFF76DFF707995F8221001EBC0005F
:1044A000C7B240212846FFF71EFF102040EA17112F
:1044B0002846FFF718FF07F00F012846FFF70BFF0C
:1044C000B07940F0B0012846FFF705FF3079326837
:1044D000C006010E2846FFF70EFF641E14F0FF040D
:1044E000F4D12846FFF7EFFE0120ABE78145000835
:1044F0000020704730B444690023A44630BC6047B4
:1045000010B5194B1046412916D008DC282910D0C7
:10451000292925D02B2921D0402908D111E04FF499
:104520000054492912D04A2910D04B290FD000201D
:1045300010BDFEF707FC15E04FF4804103E00122B7
:1045400008E04FF40041002AF9D103E0074B02B123
:10455000012221461846FCF7FAFB03E000BF01E008
:10456000FCF7E6FA012010BD000C014000100140EC
:10457000A1400008A5400008493F00081815AF19E0
:10458000FF1815AE19FF1815A115C819FF1815A0A9
:1045900015C019FF1815AE15D5168015A8163F15AC
:1045A000D316001540158D16141520160015A115EB
:1045B000C815DA1612158116CF15D916F115DB16A6
:1045C00040152E15A415A619FF1815AE15D5168081
:1045D00015A8163F15D316001540158D1614152075
:1045E000160015A115C815DA1612158116EF15D982
:1045F00016A115DB1600152E15A415A619FF181502
:10460000AE15D5168015A8163F15D3160015401502
:104610008D16141520160015A115C815DA160215E9
:104620008116CF15D916F115DB1640152E15A415D8
:10463000A619FF1815AE15A415D5165015A8163FC6
:1046400015D31600154015AD168B15D9162215DB9E
:1046500016351532158116FF15A615DA161219FF33
:104660000001140A6464323200127A0000042896B1
:1046700010080000800040000001140A6464323217
:1046800000093D0003042896100802028000400043
:1046900000000000000000000102030406070809F2
:1046A00000000000010203044FBB610567ACDD3F61
:1046B000182D4454FB21E93F9BF681D20B73EF3F49
:1046C000182D4454FB21F93FE2652F227F2B7A3CC1
:1046D000075C143326A6813CBDCBF07A8807703C7A
:1046E000075C143326A6913CC4EB98999999C9BFED
:1046F000711623FEC671BCBF6D9A74AFF2B0B3BF22
:104700009AFDDE522DDEADBF2F6C6A2C44B4A2BFE1
:104710000D5555555555D53FFF8300922449C23F4D
:104720006E204CC5CD45B73F513DD0A0660DB13F81
:10473000EB0D76244B7BA93F11DA22E33AAD903F93
:104740000000000000000000684700080000002092
:104750009800000028360008004800089800002053
:10476000C809000038360008000000000000000002
:104770000000000000000000000000000000000039
:10478000000000400AD7A33B00000000000000002A
:104790000000000000000000000000000000000019
:1047A0000000000000000000000000000000000009
:1047B00000000000000000000000000000000000F9
:1047C00000000000000000000000000000000000E9
:1047D00000000000000000000000000000000000D9
:1047E00000000000000000000000000001000000C8
:1047F00010000000000000000024F4000000000091
:04000005080000ED02
:00000001FF
