:020000040800F2
:100000001806002001010008412900088D20000881
:10001000C928000875090008D52F00080000000055
:10002000000000000000000000000000D3290008CC
:10003000390A000800000000D1290008592B0008E7
:100040001B0100081B0100081B0100081B01000820
:100050001B0100081B0100081B0100081B01000810
:100060001B0100081B0100081B0100081B01000800
:100070001B0100081B0100081B0100081B010008F0
:100080001B0100081B0100081B0100081B010008E0
:100090001B0100081B0100081B0100081B010008D0
:1000A0001B0100081B0100081B0100081B010008C0
:1000B0001B0100081B0100081B0100081B010008B0
:1000C0001B0100081B0100081B0100081B010008A0
:1000D0001B010008C92F00081B0100081B010008B4
:1000E0001B0100081B0100081B010008DFF80CD0F1
:1000F00000F0B8FB00480047ED3400081806002067
:100100000648804706480047FEE7FEE7FEE7FEE7B1
:10011000FEE7FEE7FEE7FEE7FEE7FEE7272C000826
:10012000ED000008202A04DB203A21FA02F0002129
:10013000704721FA02F3D040C2F1200291400843F7
:1001400019467047D2B201E000F8012B491EFBD2DC
:1001500070470022F6E710B513460A4604461946D2
:10016000FFF7F0FF204610BDF0B480EA0102D40F83
:100170004200B2EB410F02D20246084611464A0045
:1001800042D0C30DDDB2C1F3C752AD1A202D35DA0E
:10019000C1F3160141F4000204B15242C5F1200638
:1001A00002FA06F12A411044B3EBD05F23D0C4B168
:1001B000012DA0EBC35009DCF0BC4FF0004202EA75
:1001C000C352DBB200F5000000F0C1BA400000F1FC
:1001D000807000EBC350A0F1807040EAD1704900FC
:1001E00009E0490841EAC071A0EBC35000F50000E6
:1001F000400800EBC350F0BC00F0A0BA61420122FD
:1002000002EB4101001BF6E7F0BC704781F00041B2
:10021000AAE780F00040A7E780EA010210B502F0EB
:100220000043400022D04A001FD0010E01EB1261B2
:10023000C0F35600C2F3560240F4000042F400023C
:10024000A0FB022000047F39140400D0401C50EAB7
:10025000124001D44000491EC2B20C0604EBD0107B
:10026000401C4008802A02D003E0002010BD20F08E
:100270000100002900DA0020184310BD30B480EAE4
:10028000010202F0004530F0004221F0004013D09E
:1002900090B1C30DD40DC2F31601C0F31600E41AD9
:1002A00041F4000140F400027D34914201D3641C0A
:1002B00000E04900002C02DA30BC002070474FF407
:1002C00000000023914201D3891A034340084FEAFA
:1002D0004101F7D151B1914202D14FF0004105E007
:1002E00002D24FF0010101E06FF0010103EBC450B5
:1002F000284430BC00F022BA2DE9FE4F804681EA46
:100300000300C00F0C46009021F0004123F000458F
:10031000B8EB0200A94105D24046214690461C4652
:100320000B46024623F00040104347D0270DC7F389
:100330000A00C3F30A510290401A019040286BDA78
:10034000C3F3130040F4801B0098924620B10023B1
:10035000D2EB030A63EB0B0B01985946C0F1400244
:10036000504600F0CAF906460D4650465946019AD5
:1003700000F0D2F910EB08006141002487EA115225
:1003800084EAE7731A4340D0009A62B3019A012AC3
:100390004FEA075215DC001B61EB02014FF00042EF
:1003A00002EA0752CDE90042001C41F580113246B5
:1003B0002B4600F009FA03B0BDE8F08F4046214615
:1003C000F9E7001B61EB0201001C41F580130018E6
:1003D0005B412018A2F5001747EB030140EAD570F6
:1003E000B6196D4111E06D084FEA360645EAC07551
:1003F0004FEA0752001B61EB0201001C41F580111E
:1004000049084FEA30000019514132462B4603B0EB
:10041000BDE8F04F00F0C9B9009801224000002368
:10042000D0EB020263EBE073009821464FEAE074E0
:10043000B8EB000061EB0401E9E783F000435BE700
:1004400081F0004158E72DE9FE4F81EA030404F0F2
:10045000004421F0004100944FF0000B23F00043D2
:1004600050EA01045ED052EA03045BD0C3F30A549D
:10047000C1F30A552C44A4F2F3340194A0FB0254B6
:10048000C1F3130141F48011C3F3130343F4801348
:1004900001FB024400FB034E840A970A44EA81549C
:1004A00047EA8357A4FB076802958D0A05FB078579
:1004B0004FEA932C04FB0C542705029D4FEA065883
:1004C00047EA1637B5EB08056EEB070C870E920E60
:1004D00047EA811742EA8312A7FB0201B6EB0B0140
:1004E00064EB00042B0D43EA0C335E1844EB1C5004
:1004F000DA465146E7FB0201C5F313044FEA0B331A
:1005000043EA14534FEA0432019C43EA0603A4F180
:100510000C040294009CCDE900B400F055F903B03E
:10052000BDE8F08F00200146F9E72DE9F04D81EAA2
:10053000030404F0004B21F0004514464FF0000A7C
:1005400023F0004150EA050220D054EA01021DD0F8
:10055000C5F30A570246C5F31303C1F31300C1F3F1
:100560000A5640F4801543F48013A7EB0608101BCD
:10057000D64608F2FD3873EB050002D308F10108F6
:1005800001E092185B41B8F1000F03DA0020014648
:10059000BDE8F08D00204FF48011064684460EE041
:1005A000171B73EB050705D3121B63EB050306430B
:1005B0004CEA010C49084FEA300092185B4150EABE
:1005C0000107EDD152EA030012D082EA040083EA67
:1005D0000501084305D0101BAB4106D201220023C0
:1005E00006E000224FF0004302E06FF001025310DA
:1005F0001AEB06004CEB085110EB0A0041EB0B0123
:10060000BDE8F04D00F0D1B870B521F000430343D0
:100610000CD0C1F30A550024D5EB040564EB0403A8
:10062000D617AD1AB34102DB0020014670BD201879
:1006300041EB025170BDC10F80EAE0700844CA0767
:100640009623002100F083B80EB5C10F80EAE07058
:100650000844CA07002140F233438DE80E000A46E1
:100660000B4600F0B1F803B000BD00F0004220F0EE
:100670000040C10DC0F3160040F400007F2901DAEC
:1006800000207047962903DCC1F19601C84001E0C3
:1006900096398840002AF4D04042704700F000426A
:1006A00030F000400AD0C10D01F56071C0F31600B2
:1006B00042EA0151C2084007114370470020014639
:1006C000704701F0004330B421F0004150EA0102CC
:1006D00006D00A0DA2F56072C1F31301002A02DCF4
:1006E00030BC00207047440F44EAC104C100E01848
:1006F00030BC00EBC25000F021B8202A04DB203AC5
:1007000000FA02F1002070479140C2F1200320FA64
:1007100003F3194390407047202A06DBCB17203A99
:1007200041FA02F043EAE07306E041FA02F3D040F6
:10073000C2F1200291400843194670470029A8BF22
:100740007047401C490008BF20F00100704710B4FA
:10075000B0FA80FC00FA0CF050EA010404BF10BCAF
:10076000704749B1CCF1200421FA04F411FA0CF1DC
:1007700018BF012121430843A3EB0C01CB1D4FEA15
:1007800000614FEA102042BF002010BC704700EB10
:10079000C35010440029A4BF10BC7047401C49003E
:1007A00008BF20F0010010BC704710B5141E73F193
:1007B000000408DA401C41F1000192185B411A4321
:1007C00001D120F0010010BD2DE9F04D92469B466D
:1007D00011B1B1FA81F202E0B0FA80F22032904613
:1007E000FFF78BFF04460F4640EA0A0041EA0B017F
:1007F00053465A46084313D0114653EA010019D014
:10080000C8F140025046FFF78DFC05460E465046A3
:1008100059464246FFF771FF084305D0012004E026
:1008200020463946BDE8F08D0020054346EAE076D3
:100830002C4337430A986305E40AA0EB0800002222
:10084000FD0A44EA47540A3002D500200146E9E790
:10085000010510196941DDE9084500196941BDE844
:10086000F04DA2E7064C074D06E0E06840F00103BA
:1008700094E8070098471034AC42F6D3FFF73AFCEF
:1008800070360008903600082DE9F041274CB4F985
:100890000000FFF7D9FE6FF00D052A46FFF7B4FE02
:1008A000FFF70FFF6061B4F90200FFF7CDFE2A46A3
:1008B000FFF7AAFEFFF705FF0646A061B4F90400A2
:1008C000FFF7C2FE2A46FFF79FFEFFF7FAFEE06140
:1008D000FFF7E4FE07460D463046FFF7DFFE3A46D7
:1008E0002B4602F037FD0022114BFFF7ACFD114AF9
:1008F000114BFFF71AFEFFF7E4FE05462062B4F93C
:100900000600FFF7A1FE4FF066320C4BFFF70DFE1D
:10091000FFF7D7FE606201462846226900F068F8BA
:10092000E168FFF773FCA062BDE8F0810C000020D5
:10093000008066401F85EB51B81E09406666304056
:1009400070B50B4C084E0949606AFFF765FC054617
:10095000A06A314680F00040FFF75EFC2946FFF7B1
:1009600055FC206470BD0000000082423333134008
:100970000C000020FEE7000010B54FF480710D4818
:1009800000F0D8F90C49002218B10A608A604A6068
:1009900010BD0868401C08601E2808DB486808B1C4
:1009A0000A6010BD01208860C1E9002010BD8A6086
:1009B00010BD0000000801400000002070B5054691
:1009C0004FF6FF7000224AF201040EE0AB5C584083
:1009D0000023C60702D084EA500000E040085B1CF8
:1009E000DBB2082BF5D3521CD2B28A42EED370BDD3
:1009F0002DE9F04117460E4C88460E4A0B4E014633
:100A000010466660FFF708FC054639464046FFF78A
:100A100003FC2168FFF7A8FB3146FFF7FDFB2946E1
:100A2000FFF7A2FB2060BDE8F081000048E17A3FBB
:100A30007C00002000D7A33C704770470B4810B5DE
:100A40000168486A02B20A485242002302634B62BC
:100A5000084909684C6A24B2C4624B62016E2144A1
:100A60000166416E1144416610BD00007C0100200A
:100A70000C000020EC000020064A10B5911E881ED4
:100A800001F0ECFC034ABDE81040921D911E881E47
:100A900001F0FCBC1000002010B590F821100024DB
:100AA000022903D00421816301243DE001680A6822
:100AB00022F00E020A6001680A6822F001020A6050
:100AC0001A4A0168914201D1012121E0174A1432EA
:100AD000914201D110211BE0144A2832914201D1E8
:100AE000891515E0114A3C32914201D189140FE079
:100AF0000E4A5032914202D14FF4803108E00B4A45
:100B00006432914202D14FF4801101E04FF08071C4
:100B1000064A083A5160012180F82110002180F82E
:100B20002010416B01B18847204610BD08000240EB
:100B300070B5044600F010F90546601C02D0044868
:100B40000078044400F008F9401BA042FAD370BDBD
:100B5000840000202DE9F84FDFF8B891002409F156
:100B6000040A0AF1040B23460F270BF1040EC9E017
:100B70000125A5402A40AA427DD1674ED1F804C084
:100B8000ACEB0608B44532D014DCBCF1030F3AD00C
:100B900009DCBCF1000F2AD0BCF1010F1CD0BCF164
:100BA000020F31D11DE0BCF1110F17D0BCF1120FB3
:100BB0002AD119E0B8F5881F19D006DCB8F5803FB6
:100BC00015D0B8F5801F1FD111E0B8F5001F0ED069
:100BD000B8F5041F18D10AE0CB6815E0CB681B1DDF
:100BE00012E0CB6808330FE0CB680C330CE08B6865
:100BF0002BB1012B4FF0080303D0456104E004231F
:100C000002E0056100E00023FF2A01D8064601E06A
:100C100000F104064FEA840501D9A5F12005D6F8B4
:100C2000008007FA05FC28EA0C0803FA05F548EAF3
:100C30000508C6F800804D68ED0062D5374DAE69F5
:100C400046F00106AE61AD6924F0030605F001052A
:100C50000095334D06EB050CDCF80850A607360F5F
:100C600007FA06F825EA0805DFF8B880404503D101
:100C70004FF0000817E044E0DFF8AC80404502D1B7
:100C80004FF001080FE0DFF8A480404502D14FF09B
:100C9000020808E0DFF89880404502D14FF00308D1
:100CA00001E04FF0040808FA06F848EA0508CCF815
:100CB00008804D68D9F80060ED034D4601D5164314
:100CC00000E096432E604D68DAF80060AD035546AB
:100CD00001D5164300E096432E604D68DBF80060B6
:100CE000ED025D4601D5164300E096432E604D6847
:100CF000DEF80060AD02754601D5164300E096436C
:100D00002E60641C0D682A46E5407FF431AFBDE8D3
:100D1000F88F000000040140000011100010024094
:100D20000000014000080140000C0140001001409B
:100D3000001401408068084000D001207047C2685C
:100D400021EA02030A4043EA0241016170470AB105
:100D5000016170470904FBE70148806870470000A3
:100D60008400002070B5040025D094F83D000025D3
:100D700020B984F83C50204600F078FA242084F80A
:100D80003D002068016821F00101016020680168D0
:100D900041F4004101602068016821F400410160D4
:100DA00000F0CAFB4D4A6168914201D84C4900E00D
:100DB0004C49884201D2012070BD4B492368B0FBE9
:100DC000F1F15E6826F03F060E435E606368934271
:100DD00006D94FF4967359434FF47A73B1FBF3F18C
:100DE0002368491C1E6A26F03F0631431962616878
:100DF000914210D84900401EB0FBF1F2521CC2F3E0
:100E00000B02042A01D2042022E0B0FBF1F0401CC6
:100E1000C0F30B001CE0A268F2B301EBC10303EBCB
:100E20000116431EB3FBF6F35B1C43F480431B0522
:100E300049D092B301EBC10202EB0111401EB0FB9D
:100E4000F1F0401CC0F30B0040F4804040F400403F
:100E50002168CA694CF6FF739A431043C861D4E90C
:100E6000071001432068026822F0C00211430160AC
:100E7000D4E9030101432068826848F2FF339A43B2
:100E800011438160D4E9050108432168CA6822F052
:100E9000FF021043C86001E00EE016E02068016820
:100EA00041F0010101602564202084F83D002563A4
:100EB00084F83E50002070BD01EB4106431EB3FB99
:100EC000F6F35B1CB3E70120C2E701EB4101401ED2
:100ED000B0FBF1F0401CC0F30B00B7E7A0860100A7
:100EE00080841E0000093D0040420F002DE9FF4FA5
:100EF00083B00025DDE910799A4693460446DDF873
:100F000048800095FFF728FF064694F83D0020280A
:100F10007CD11923012285492046009601F0C6F9AB
:100F20000028F5D194F83C0001286FD0012084F806
:100F30003C0020680168C90703D1016841F0010144
:100F400001602068016821F400610160222084F8BA
:100F50003D00402084F83E0025646762A4F82A9092
:100F6000608D20857248E062CDE9008653465A467E
:100F70002046049901F0A2F800287DD1208DDFF8E9
:100F8000B491202768B1012814D002282068016894
:100F90001ED041F480610160206841698069009041
:100FA000B6E02068416981690091016841F40071EF
:100FB0000160ADE02068016821F48061016072B6D3
:100FC0002068416981690091016841F400710AE07B
:100FD00041F40061016072B6206841698169009145
:100FE000016821F48061016062B691E0032868D84D
:100FF00001280CD0022843464FF000024946204603
:1010000000960FD001F052F9B0BB10E08BE03246F1
:101010004146204601F0C9F970BB20680069616A49
:1010200008706CE001F042F930BB72B634E0206821
:10103000016821F48061016072B620680069616A0C
:101040000870606A401C6062208D401E2085608DA3
:10105000401E6085384846F2A8110068B0FBF1F0E8
:10106000C0EBC00000EB80000090401E009008D054
:1010700020684069C04300E029E040070CD5009893
:10108000F3E744F8305F6773A573206940F02000F0
:10109000206162B625731AE02068016841F400718E
:1010A000016020680069616A0870606A401C6062C3
:1010B000218D491E2185618D491E618562B6216899
:1010C0001BE032464146204601F06FF918B101207D
:1010D00007B0BDE8F08F20680069616A0870606A37
:1010E000401C6062218D491E2185618D491E6185EC
:1010F00021684A69D24352070AD409690170606ABB
:10110000401C6062208D401E2085608D401E6085E1
:10111000208D00287FF46AAF84F83D7084F83E503B
:1011200084F83C50D4E70220D2E70000020010000F
:101130000000FFFF04000100900000202DE9FF4F98
:1011400083B09A46DDE9119793460446DDF8408066
:10115000FFF702FE054694F83D0020287FD11923B1
:10116000012240492046009501F0A0F8002876D1E0
:1011700094F83C00012872D0012084F83C002068DB
:101180000168C90703D1016841F0010101602068CD
:10119000016821F400610160212084F83D004020B5
:1011A00084F83E0000262664C4F82480A4F82A901F
:1011B000608D20852C48E062CDE9007553465A4683
:1011C0002046049900F0F8FF70B930E02A4639460D
:1011D000204601F01DF958B1206C042804D1206884
:1011E000016841F400710160012007B0BDE8F08F93
:1011F000606A216800780861606A401C6062218D25
:10120000491E89B22185628D521E6285226853690A
:10121000DB435B070BD469B100781061606A401C46
:101220006062208D401E2085608D401E6085208D6F
:101230000028CBD12A463946204601F011F8002873
:10124000CAD154F83D0B016841F4007101602020BF
:1012500004F81E09E67766770020C6E7FFE702205C
:10126000C3E70000020010000000FFFF10B586B0C9
:101270000021009101910291039100681349884275
:1012800022D1134CA06940F00800A061A069694612
:1012900000F0080004904FF440700090122001907C
:1012A000032003900B48FFF755FC0B48416841F0C1
:1012B000E06141F002014160E06940F40010E0614A
:1012C000E06900F40010049006B010BD0054004026
:1012D00000100240000C01400000014002488168FB
:1012E000027811448160704784000020074810B5DF
:1012F000016841F010010160032000F075F8002042
:1013000000F006F800F024F8002010BD0020024094
:1013100070B50D4D04464FF47A712878B1FBF0F0AA
:101320000A490968B1FBF0F000F0EDFA48B9102C59
:1013300007D200222146501E00F036F800206C60D3
:1013400070BD012070BD00008400002090000020CE
:101350000C4808B5816941F001018161816901F0A2
:1013600001010091C16941F08051C161C06900F083
:10137000805000900448416821F0E06141F0007124
:10138000416008BD0010024000000140002809DB58
:1013900000F01F02012191404009800000F1E0208F
:1013A000C0F8001170470000F0B40E4B1B680C46EB
:1013B000C3F30223C3F10705042D00D90425191D29
:1013C000072901D2002300E0DB1E012606FA05F101
:1013D000491E214099409E40761E16403143F0BC84
:1013E00001F016BE0CED00E0064900F007020868A7
:1013F0004FF6FF03184040EA0220034A10430860FA
:10140000704700000CED00E00000FA052DE9F04700
:101410000F46050061D0434E306800F00700B84227
:1014200009D2306820F0070038433060306800F09F
:101430000700B84251D128683B4C810712D54007BC
:1014400003D5606840F4E06060602878000703D549
:10145000606840F4605060606068A96820F0F00047
:10146000084360602878C00728D06868012810D039
:101470002168022810D0890700292EDA616821F03E
:10148000030101436160FFF767FC804641F2883940
:101490000DE021688903EFE78901EDE7FFF75CFCC8
:1014A000A0EB0801494502D90320BDE8F087606838
:1014B000696800F00C00B0EB810FEFD1306800F0EC
:1014C0000700B8420BD9306820F00700384330607D
:1014D000306800F00700B84201D00120E5E7287825
:1014E000400705D56068E96820F4E0600843606063
:1014F0002878000706D56068296920F4605040EA22
:10150000C100606000F038F86168084AC1F3031157
:10151000515CC8400649086006480068FFF7F8FEBD
:101520000020C2E70020024000100240B835000849
:1015300090000020880000200448054900684968A0
:10154000044AC1F30221515CC8407047900000205A
:1015500000100240C8350008044805490068496881
:10156000044AC1F3C221515CC8407047900000207A
:1015700000100240C835000812A185B00FC98DE8DF
:101580000F0014A0144A006804905168134801F039
:101590000C03042B10D0082B0ED1C1F38343C903D5
:1015A0001DF803000AD5516804AAC1F34041515CFB
:1015B0000A4A5043B0FBF1F005B070470849484370
:1015C000FAE7000002030405060708090A0B0C0DE0
:1015D0000E0F1010010200000010024000127A00ED
:1015E00000093D002DE9F84F040070D02078C04D6F
:1015F000C00749D06868C0F38100012807D0686837
:10160000C0F38100022809D16868C00306D52868A4
:10161000800339D560680028E7D035E06068B0F510
:10162000803F0BD010B1B0F5A02F11D0286820F466
:1016300080302860286820F4802002E0286840F488
:1016400080302860606890B1FFF786FB06460AE0AC
:10165000286840F480202860F0E700BFFFF77CFB9B
:10166000801B642873D828688003F7D50CE0FFF747
:1016700073FB064605E000BFFFF76EFB801B642886
:10168000F0D828688003F7D420789A4E80074FF06E
:1016900001094FF0000839D5686810F00C0F07D029
:1016A0006868C0F38100022809D16868C00306D4C5
:1016B0002868800714D52069012808D110E0206926
:1016C000B0B1C6F80090FFF747FB074605E00AE116
:1016D000FFF742FBC01B0228C4D828688007F7D553
:1016E0002868616920F0F80040EAC10028600DE038
:1016F000C6F80080FFF730FB074604E0FFF72CFB3D
:10170000C01B022823D828688007F7D42078000758
:101710002CD57948A169D9B1C0F80090FFF71CFB1E
:10172000074604E0FFF718FBC01B02280FD8686AC1
:101730008007F7D571484FF4FA510068B0FBF1F01B
:10174000009000BF0098411E0091FAD20EE080E0A8
:10175000C0F80080FFF700FB074604E0FFF7FCFA43
:10176000C01B022875D8686A8007F7D42078400724
:1017700060D5E8690027C00008D4E86940F08050CF
:10178000E861E869012700F0805000905C4801683A
:10179000C90513D40168834641F480710160FFF7E5
:1017A000DBFA824606E000BFFFF7D6FAA0EB0A009C
:1017B00064284ED8DBF80000C005F5D5E0680128A4
:1017C0000AD008B1052813D0286A20F00100286249
:1017D000286A20F0040002E0286A40F00100286234
:1017E000E06841F2883B98B1FFF7B6FA82460BE019
:1017F000286A40F004002862EEE700BFFFF7ACFA69
:10180000A0EB0A0159455AD8286A8007F6D50CE0A2
:10181000FFF7A2FA824605E0FFF79EFAA0EB0A0165
:1018200059454CD8286A8007F6D41FB1E86920F0E2
:101830008050E861E06988B36968C1F381010229D9
:1018400044D00228C6F8608004D0FFF785FA044629
:1018500038E034E0FFF780FA074604E0FFF77CFA4F
:10186000C01B02282BD828688001F7D4206AB0F565
:10187000803F05D16868A16820F4003008436860A3
:10188000D4E908010843696821F4741108436860C9
:10189000C6F86090FFF760FA044606E025E000BF56
:1018A000FFF75AFA001B022809D828688001F7D5EB
:1018B0001BE000BFFFF750FA001B022802D90320EB
:1018C000BDE8F88F28688001F4D40EE00128F7D035
:1018D0006868226A00F48031914204D1616A00F4A0
:1018E0007010884201D00120EAE70020E8E70000FC
:1018F000001002400000424280044242900000205A
:1019000000700040704710B5401EB0F1807F01D3D9
:10191000012010BD4FF0E02460610F21601701F03D
:1019200077FB0020A06107202061002010BD10B5CA
:10193000FFF7E8FF10BD000070B590F83C20012AC9
:1019400026D0012480F83C40022280F83D20036824
:101950005A689D6822F070060A6832435A600D4B3F
:1019600002689A4208D0B2F1804F05D00A4B9A42E1
:1019700002D00A4B9A4204D1496825F080031943EA
:10198000916080F83D40002180F83C10084670BD11
:10199000022070BD002C01400004004000080040FF
:1019A0002DE9F0410D46040003D094F83D0018B134
:1019B00008E00120BDE8F081002084F83C002046CA
:1019C00000F040F8022084F83D002068816844F26D
:1019D000070291438160211D206801F025F92268EA
:1019E00090689169166A2B68AF69034340F203302F
:1019F000814341EA0721A868EF6908434FF6FC419B
:101A00008843E96840EA0720014328692F6A0001FA
:101A100040EA0730084369686D6926F0220646EA05
:101A20000515294393602268906154F8460B0162C2
:101A3000012004F81F09E0752076E0762077A07574
:101A40000020B7E700B585B0002100910191029117
:101A5000039101681A48B1F1804F1BD0194A914295
:101A600016D1C16941F00401C161C16901F00401ED
:101A70000491816941F0080181618069694600F043
:101A800008000490C02000900F4800BFFFF762F8E4
:101A900005B000BDC16941F00101C161C16901F03A
:101AA00001010491816941F0040181618069694605
:101AB00000F004000490032000900448E6E70000D2
:101AC0000010024000080040000C014000080140E6
:101AD00070B590F83E60044690F83F5090F8423060
:101AE00090F84320022021B104290ED0012E1BD1F1
:101AF00014E0012E18D1012B16D184F83E0084F891
:101B0000420001220021206820E0012D0CD1012A91
:101B10000AD184F83F0084F8430014E0012D03D17A
:101B2000012B01D1012A01D0012070BD84F83E00B3
:101B300084F83F0084F8420084F843000122002129
:101B4000206801F0A7F801220421206801F0A2F822
:101B50002068016841F001010160002070BD0000B3
:101B600000B585B0002100910191029103910068B8
:101B70000B49884211D10B48816941F00401816110
:101B80008069694600F004000490C02000900220A3
:101B9000019003900448FEF7DDFF05B000BD000092
:101BA00000040040001002400008014070B50446E7
:101BB00090F83C000D4601280AD0012084F83C0032
:101BC00042B1042A18D0082A2AD00C2A4DD139E073
:101BD000022070BD206801F06BF82068816941F037
:101BE000080181612068816921F004018161206818
:101BF00081692A69114311E0206801F081F82068A9
:101C0000816941F4006181612068816921F480610A
:101C10008161206881692A6941EA0221816124E0A9
:101C2000206801F099F82068C16941F00801C1619C
:101C30002068C16921F00401C1612068C1692A6975
:101C4000114311E0206801F0B3F82068C16941F444
:101C50000061C1612068C16921F48061C1612068AF
:101C6000C1692A6941EA0221C161002084F83C006F
:101C700070BD10B5040003D094F83D0010B107E02A
:101C8000012010BD002084F83C00204600F01EF822
:101C9000022084F83D00211D206800F0C5FF0120CE
:101CA00084F8460084F83E0084F83F0084F8400041
:101CB00084F8410084F8420084F8430084F844002A
:101CC00084F8450084F83D00002010BD08B5006888
:101CD0000649884208D10648C16941F00201C16144
:101CE000C06900F00200009008BD00000004004040
:101CF0000010024010B50446022249B104290ED05A
:101D0000082913D094F84100012816D0012010BDF5
:101D100094F83E000128F9D184F83E200FE094F8B1
:101D20003F000128F2D184F83F2008E094F84000F9
:101D30000128EBD184F8402001E084F84120012201
:101D4000206800F0A7FF0F492068884203D1426C49
:101D500042F4004242642068884208D0B0F1804FCB
:101D600005D00949884202D00849884204D18168D7
:101D700001F00701062903D0016841F0010101606B
:101D8000002010BD002C014000040040000800406D
:101D90007047000070B5026804461068D168536946
:101DA00010F00F0F53D003F0010501F490762E438D
:101DB0005FD0C20705D0CA0503D5E26B42F001022D
:101DC000E263420705D5DA0703D0E26B42F0020274
:101DD000E263820705D5DA0703D0E26B42F0040222
:101DE000E263020707D501F020022A4303D0E26B29
:101DF00042F00802E263E26B002A34D0800604D588
:101E0000880602D5204601F00BF820684069E16B96
:101E1000C0F3801001F008010143204624D000F0F7
:101E2000F1FF2068416949061AD5416921F0400156
:101E30004161606BA0B12D494163606BFEF72CFEE0
:101E4000002810D0606B416BBDE8704008478306E6
:101E50000FD58B060DD52046BDE8704000F0E0BFE1
:101E60002046FFF795FF70BDFFF792FF0020E0636B
:101E700070BD03062BD50B0629D594F8390021280F
:101E8000F6D1A068B0F5805F01D12069B0B1206AB9
:101E9000411C2162216800784860E08C401E0004EB
:101EA000000CE084E4D12068C16821F08001C160A9
:101EB0002068C16841F04001C16070BD206A00889F
:101EC000C0F308005060206A801C2062E5E74006ED
:101ED000F3D54806F1D5D168204621F04001D16004
:101EE000202184F8391000F0D0F870BDF52D0008DD
:101EF00070B5040004D094F83900002510B106E054
:101F0000012070BD84F83850204600F023F82420CA
:101F100084F839002068C16821F40051C16020466E
:101F200000F0C4FF2068016921F49041016120683C
:101F3000416921F02A0141612068C16841F40051E2
:101F4000C160E563202084F8390084F83A0000205D
:101F500070BD000030B585B0002400940194029457
:101F600003940068184988422CD11848816941F4CB
:101F700080418161816901F480410491816941F06E
:101F8000040181618069124D00F0040004904FF457
:101F900000700090022001900320039069462846BB
:101FA000FEF7D8FD2815CDE90004694628460294BD
:101FB000FEF7D0FD002211462520FFF7F5F9252078
:101FC000FFF7E4F905B030BD0038014000100240D1
:101FD00000080140704700002DE9F843044690F8DE
:101FE00039001F4616460D4620284CD1C5B1BEB15A
:101FF00094F83800012846D0012084F838004FF0CA
:102000000008C4F83C80212084F83900FEF7A4FEC3
:10201000A6848146E684A068B0F5805F03D004E022
:102020000120BDE8F883206928B12E465FF0000545
:1020300084F838800EE00026FAE78021204600F080
:1020400091FFA0B9AEB116F8010B21684860E08C91
:10205000401EE084E08C4B464FF0000200970028C1
:10206000EBD14FF04001204600F07CFF30B103205F
:10207000D7E735F8020BC0F30800E6E7202084F824
:1020800039000020CDE70220CBE77047FEE701686A
:102090004A69D24352050FD46FF480624A6100212D
:1020A00040F8301F202242738173026942F004021B
:1020B0000261017301207047002070472DE9F84F3D
:1020C0000446006889460B9D01689846174641F40E
:1020D000806101602068016841F4807101600095B1
:1020E0004FF0011B0022594620460A9B00F0DEF803
:1020F0004FF4007A40B120680068C00501D5C4F8EB
:1021000040A00320BDE8F88F216809F0FE000861B7
:102110002B46284920460A9A00F0FCF8F0BB2068BC
:102120004169806900902A4620460A9900F070F9BA
:1021300040B1206C04283AD12068016841F4007154
:10214000016034E0FEB2B8F1010F09D02168380A0D
:1021500008612A4620460A9900F05AF90028E8D179
:10216000206806612A4620460A9900F051F90028A5
:10217000DFD12068016841F4807101600095002280
:10218000594620460A9B00F091F80028B3D12168F7
:1021900009F0FF0040F00100086100E007E02B4675
:1021A000044920460A9A00F0B5F80028AAD0012078
:1021B000A8E70000020001002DE9F843044600688A
:1021C0000D46DDE9089701689846164641F480718E
:1021D00001604B4600224FF001112046009700F0AD
:1021E00065F848B120680068C00502D54FF400705A
:1021F00020640320BDE8F883216805F0FE00086133
:102200003B464A461549204600F084F888B92068C4
:102210004169806900903A464946204600F0F8F846
:1022200048B1206C042804D12068016841F4007191
:1022300001600120DEE7F5B2B8F1010F09D0216895
:10224000300A08613A464946204600F0E1F8002885
:10225000E7D1206805610020CCE700000200010002
:1022600070B516460D4604460DE02046FFF70FFFF9
:1022700008B1012070BD681C05D0FEF76DFD801B04
:10228000A84207D835B120684069C0434007ECD464
:10229000002070BD002044F8300F20216173A0732E
:1022A000216941F0200121612073E2E72DE9F04727
:1022B0001E4690460D460446C1F30747DDF82090C0
:1022C00008E0701C06D0FEF747FDA0EB0900B04205
:1022D0000FD876B12068012F18D0806925EA000058
:1022E0000004000C14D000214145EAD00020BDE8D4
:1022F000F087002044F8300F20216173A07321691A
:1023000041F02001216120730120F0E74069E5E7F9
:102310000121E9E72DE9F0479A4691460E46044629
:1023200000254FF02008C1F3074725E020684069E9
:10233000C043400514D42068016841F40071016075
:1023400021686FF480604861256384F83D8084F8DB
:102350003E50206C40F00400206484F83C501FE0A4
:10236000B9F1FF3F08D0FEF7F7FCA0EB0A014945A1
:102370000CD8B9F1000F09D02068012F13D0806963
:1023800026EA00000004000C0BD0CFE744F8305FD1
:1023900084F80D80A573206940F02000206125732A
:1023A0000120BDE8F0874069EAE72DE9F04100250A
:1023B00090460E460446202717E04069C043C006F9
:1023C0000CD454F8301B6FF01000486144F81059D9
:1023D0006777A577206A2062257717E0FEF7BCFCB7
:1023E000A0EB0800B04208D83EB120684169C9435B
:1023F0004906E2D40020BDE8F08144F8305F6773FD
:10240000A573206940F02000206125730120F2E7C8
:1024100070B516460D4604460DE02046FFF737FE20
:1024200008B1012070BD681C05D0FEF795FC801B2B
:10243000A84207D835B120684069C0430006ECD4F3
:10244000002070BD002044F8300F20216173A0737C
:10245000216941F0200121612073E2E77CB5144637
:102460000D4606466A4606213B2000F07DF800280E
:102470000BD1BDF8001049BA3180BDF8021049BA3D
:102480002980BDF8041049BA21807CBD7CB5144672
:102490000D4606466A460621432000F065F80028EE
:1024A0000BD1BDF8001049BA3180BDF8021049BA0D
:1024B0002980BDF8041049BA21807CBD10B51C48A4
:1024C000FEF750FC80216B2000F098F800216B2073
:1024D00000F094F8032000F05CF8002000F054F8BD
:1024E000322000F073F80021382000F087F8002136
:1024F0006A2000F083F80021232000F07FF880217B
:10250000372000F07BF8752000F014F8682801D01F
:10251000012010BD01216B2000F070F800216C201B
:1025200000F06CF8322000F051F8002010BD0000DF
:10253000980000201FB500218DF80C1040F6FF73A5
:10254000012203A98DE80E0013460246D121054859
:10255000FEF7CCFC6420FEF7EBFA9DF80C0004B00B
:1025600010BD0000980000200EB540F6FF730092E9
:10257000CDE9011302460123D1210248FEF7B6FC42
:1025800000200EBD98000020C006010E1C2000F0A7
:1025900035B8C006010E1B2000F030B8BC2801D3AE
:1025A000012110E0622801D302210CE02A2801D386
:1025B000032108E0142801D3042104E00A2801D3F0
:1025C000052100E006211A2000F018B810B50446D5
:1025D0004FF47A70844201D9044602E0042C00D200
:1025E0000424B0FBF4F0401EC1B2192000F006F83C
:1025F0006008BDE81040FFF7D1BF00001FB540F6EE
:10260000FF738DF80C10012203A98DE80E0013460C
:102610000246D0210448FEF791FD6420FEF788FAB7
:1026200004B0002010BD0000980000202DE9F04308
:1026300085B000242D48009401940294039481698C
:1026400041F010018161816901F0100104918169FB
:1026500041F020018161816901F0200104918169CB
:1026600041F004018161816901F0040104918169F3
:1026700041F0080181618069DFF8749000F0080082
:102680000490002218214846FEF761FBDFF86480C1
:10269000002241F203014046FEF759FB18200125B4
:1026A0000226CDE90005CDE9024669464846FEF717
:1026B00051FA032700970396CDE901546946404635
:1026C000FEF748FA2803CDE90005CDE9024769463F
:1026D0004046FEF73FFA28028DE831006946484639
:1026E000FEF738FA05B0BDE8F083000000100240A4
:1026F00000080140000C01400D4810B50B49016075
:102700000C49416000214FF480428160C0E903120E
:1027100041618161C1610162FEF724FB002803D0A1
:10272000BDE81040FEF789B910BD0000005400401C
:1027300098000020A086010010B58CB024216846C6
:10274000FDF707FD0024154809944FF080410A94D5
:10275000C0E900144FF6FF71C0E9024104618461D1
:102760000320CDE900040120CDE902040494CDE961
:1027700005400794694609480894FFF711F908B124
:10278000FEF75BF9099409A904480A94FFF7D4F805
:10279000002801D0FEF751F90CB010BDEC0000206C
:1027A00010B58AB0002407941C2168460894FDF7F0
:1027B000D0FC1B48194901600321C0E901144FF402
:1027C0007A71C0E903148461FFF753FA08B1FEF788
:1027D00034F9079407A912480894FFF7ADF808B137
:1027E000FEF72BF9602000906420CDE9010400225F
:1027F00069460B480494FFF7D9F908B1FEF71DF9B3
:10280000042269460648FFF7D1F908B1FEF715F929
:102810000348FFF7A5F90AB010BD0000000400400E
:102820003401002010B58CB024216846FDF791FCDE
:1028300000241648099414490A94C0E900144FF67C
:10284000FF71C0E90241046184610320CDE9000405
:102850000120CDE902040494CDE9054007946946BE
:102860000A480894FFF79CF808B1FEF7E6F80994C7
:1028700009A906480A94FFF75FF8002801D0FEF77F
:10288000DCF80CB010BD0000000800407C01002006
:102890000C4810B50A4901604FF4E1314160002154
:1028A00081600C22C160C0E904128161C161FFF73F
:1028B0001FFB002803D0BDE81040FEF7BEB810BDD6
:1028C00000380140C4010020FEE700002DE9F04778
:1028D000174CD4E91001FDF799FCA063E063FDF704
:1028E000C4FE01464FF47A76124D8946B04200DDAF
:1028F000A563A06BFDF7B9FEDFF83C800F4F4045A4
:1029000000DAA763B14500DDE563E06BFDF7ADFEDE
:10291000404500DAE763E06BFDF7A7FE0546A06BD4
:10292000FDF7A3FE2946BDE8F04700F053B80000CC
:102930000C00002000007A4418FCFFFF00007AC45D
:1029400070470000F0B58DB000200A900B90089001
:102950000990059006901C4F039004900090019000
:10296000044608AE03AD029057F82400FDF77DFE43
:1029700046F8240045F82400641CE4B2042CF3D388
:1029800000206C4635F8201004F8101004EB4002CB
:10299000090A401CC0B251700428F3D30821204614
:1029A000FEF70CF88DF80800000A8DF809000025E4
:1029B0006119FF2301220548FFF70EFB6D1CEDB2E4
:1029C0000A2DF5D30DB0F0BD04020020C401002093
:1029D000704770472DE9F0411E4F1F4E0C00054611
:1029E0000DD5012211463846FEF7B1F90022022129
:1029F0003846FEF7ACF93168604248630BE00022CC
:102A000001213846FEF7A3F9012202213846FEF7DC
:102A10009EF930684463114C002D0EDA0122082122
:102A20002046FEF794F9002210212046FEF78FF988
:102A3000316868428863BDE8F081002208212046A1
:102A4000FEF785F9012210212046FEF780F9306853
:102A50008563F0E7000C01403401002000080140CC
:102A60002DE9F041294CDFF89C80274FD4E918016B
:102A7000084400EBD0704010FDF7DDFD00216166D9
:102A80002166FDF70BFE4FF03332214BFDF7DBFCE7
:102A900005460E46A06DFDF701FE4FF066321D4B58
:102AA000FDF7D1FC2A463346FDF726FCFDF709FE6B
:102AB000606580F00045A0652946E06DFDF754FB98
:102AC000E065FDF7D2FDB0F5617F01DCE06D01E06E
:102AD0001148E065FDF7C9FD10F5617F01DA0F4887
:102AE000E065A06CE0643946E06DFDF795FB0646B5
:102AF00041462846FDF790FB3146FDF735FBA064C3
:102B0000BDE8F081000044411B2FDD3D0C0000209A
:102B10003333D33F6666E63F00006144000061C482
:102B200070B50B4CE16CA06C0E46FDF76FFB0546D3
:102B3000206D401CFDF77FFD2946FDF76DFB054923
:102B4000FDF79CFB3146FDF70FFB606470BD000094
:102B50000C0000200000C84170B51C4C1C4D2068C2
:102B6000401C20602868401C2860FFF7D9FF2068BF
:102B70000026052803D32660FDF760FF1DE001282D
:102B800006D0022809D003280AD0042813D014E064
:102B9000FDF772FFFDF778FE0FE0FDF7D1FE0CE0C8
:102BA0000C4C2068401C2060052806D3FFF758FF16
:102BB00026602E6001E0FFF789FEFDF7DDFEFEF7DF
:102BC0008DFBBDE87040FEF7B2BE0000740000202F
:102BD0005C0000207800002030B58FB028216846C6
:102BE000FDF7B7FA14210AA8FDF7B3FA012108048A
:102BF000CDE900100024029402250491CDE907508C
:102C00004FF4E01009906846FEF7ECFC0F20CDE988
:102C10000A056802CDE90C4002210AA80E94FEF7CD
:102C2000F5FB0FB030BD7047F0B50268164B174C7E
:102C3000174D4FF08047984205D0B84203D0A042CC
:102C400001D0A84203D122F070064A68324398426C
:102C500005D0B84203D0A04201D0A84203D122F44B
:102C60004074CA6822434C6922F080022243026009
:102C70008A68C2620A688262984201D10969016366
:102C800001214161F0BD0000002C01400004004022
:102C90000008004010B501F01F030121046A9940AB
:102CA0008C430462016A9A401143016210BD000026
:102CB00030B5026A22F001020262026A4368846946
:102CC00024F073050C682C4322F002058A682A431D
:102CD0000A4DA8420BD122F00805CA6823F44073BC
:102CE0002A434D6922F004021D438B692B43436044
:102CF000846149684163026230BD0000002C0140DC
:102D000030B5026A22F010020262026A43688469E6
:102D10000D6824F4E64444EA05248D6822F020027C
:102D200042EA05120B4DA8420ED1CD6822F0800276
:102D300042EA05124D6923F4406343EA85038D6935
:102D400022F0400243EA850343608461496881635D
:102D5000026230BD002C014030B5026A22F480725C
:102D60000262036A4268C46923F4007324F07305A5
:102D70000C682C438D6843EA05230C4DA8420ED104
:102D8000CD6823F4006343EA05234D6922F44052E1
:102D900042EA05128D6923F4806342EA051242601B
:102DA000C4614968C163036230BD0000002C01406A
:102DB00030B5026A22F480520262046A4268C36932
:102DC0000D6823F4E64343EA05238D6824F4005498
:102DD00044EA0534064DA84204D14D6922F48042EC
:102DE00042EA85124260C36149680164046230BDF1
:102DF000002C014010B5406A0021C185C184FEF756
:102E0000C7FF10BD0168CA6822F49072CA600168E9
:102E10004A6922F001024A61202180F83A10704785
:102E200010B590F83A10222901D0022010BD826816
:102E30004FF480539A4201D1016921B1816A9A42CB
:102E40001BD04AB10AE00268816A5268C2F30802E4
:102E50000A80816A891C08E0026972B102685268BE
:102E600002F07F020A70816A491C8162C18D491E8D
:102E70000904090CC18503D016E002685268F1E725
:102E80000168CA6822F02002CA600168CA6822F498
:102E90008072CA6001684A6922F001024A612021F9
:102EA00080F83A10FFF796F8002010BD70B5044680
:102EB00000680169E26821F4405111430161216910
:102EC000A0680843616908432168CA6841F20C633D
:102ED0009A430243CA6020684169A26921F44071A3
:102EE000114341611E492068884202D1FEF734FB3C
:102EF00001E0FEF721FB00EBC00101EB001260686E
:102F000064218000B2FBF0F3B3FBF1F36FF018061D
:102F10007343B2FBF0F5B2FBF0F605EB8305322309
:102F200003EB0515B5FBF1F5B6FBF1F605F0F00581
:102F300005EB0615B2FBF0F6B2FBF0F0B0FBF1F0DA
:102F40006FF01802504306EB800003EB0010B0FB5B
:102F5000F1F0216800F00F002844886070BD000087
:102F6000003801402DE9F041984617460E460446C8
:102F7000069D1DE0681C1BD02DB1FDF7EDFEA0EBFA
:102F80000800A84214D92068C16821F4D071C1603A
:102F90002068416921F001014161202084F8390055
:102FA00084F83A00002084F838000320BDE8F0815E
:102FB0002068006836EA000004D00020B842D9D06A
:102FC0000020F3E70120F9E70148FEF7E3BE000027
:102FD000C4010020FEE70000014A024900F099B850
:102FE000D534000894000020490050EAC12018BFE1
:102FF00004204A0D18BF40F0010040F2FF72B2EB0E
:10300000515F08BF40F00200012808BF052070474B
:103010000907090E002804DB00F1E02080F8001405
:10302000704700F00F0000F1E02080F8141D704799
:103030002DE9F0414F1E00EBC7010446D1E9000124
:1030400015461E4637F006020DD02A463346FDF7D8
:10305000FAF97F1E04EBC703D3E90023FDF74CF90F
:1030600037F00602F1D1022F25D0042F13D0062FFE
:1030700018BFBDE8F0812A463346FDF7E4F9D4E9EC
:103080000A23FDF739F92A463346FDF7DCF9D4E97E
:103090000823FDF731F92A463346FDF7D4F9D4E980
:1030A0000623FDF729F92A463346FDF7CCF9D4E982
:1030B0000423FDF721F92A463346FDF7C4F9D4E984
:1030C0000223FDF719F92A463346FDF7BCF9D4E986
:1030D0000023BDE8F041FDF70FB90122FDF794BAD6
:1030E000FDF70AB9024A00201107FDF78DBA00006A
:1030F00001FDFFFF02E008C8121F08C1002AFAD133
:1031000070477047002001E001C1121F002AFBD167
:1031100070472DE9F04116460F460446002503E0AE
:103120003946B047641C6D1C20780028F8D1284629
:10313000BDE8F0812DE9F84F04460D4621F000402E
:1031400000917349814211DC7249884201DC06D149
:103150002CB120462946BDE8F84FFFF7BEBF6E48A8
:10316000002DCCBF6D496E49BDE8F88F6D49814295
:1031700011DD6D498142D8BF4FF0FF366DDD20462D
:103180002946FFF731FF042808BFFFF7ABFF2046B1
:103190002946BDE8F88F6549654F25F00045814215
:1031A00033DD6449814219DD002632464FF0804309
:1031B00020462946FDF7A0F880468A46012220468F
:1031C0002946FDF721FA00223B46FDF736F9424633
:1031D0005346FDF7AAF904460D463EE001260022BB
:1031E000BA463B4620462946FDF786F880460F46FC
:1031F0000022534620462946FDF71FF942463B462A
:10320000FDF793F904460D4627E04B4981421BDD4B
:10321000DFF828A102260022534620462946FDF762
:1032200012F900223B46FDF767F880460F46002260
:10323000534620462946FDF700F942463B46FDF736
:1032400074F904460D4608E0032622462B4600206A
:103250003B49FDF76AF904460D4622462B461046C7
:103260001946FDF7F0F88B46824602460B46FDF7FD
:10327000EAF807460246334888460B46062178445A
:10328000FFF7D6FE52465B46FDF7DDF882462E4834
:103290008B463A46434605217844FFF7C9FE3A4635
:1032A0004346FDF7D0F802460B46002E50465946DD
:1032B0000CDAFDF721F822462B46FDF7C4F801B0E1
:1032C00022462B46BDE8F04FFDF7BAB8FDF714F8DB
:1032D00022462B46FDF7B7F81C4A7A4402EBC60398
:1032E000D3E90023FDF7A9F822462B46FDF7A5F800
:1032F000174A7A4402EBC603D3E90023FDF7A0F88E
:10330000009A002AB8BF81F00041BDE8F88F0000A4
:10331000000010440000F07F182D4454FB21F93FB9
:10332000FB21F9BF0000DC3F0000203E0000F33F1E
:103330000000F03F0000E63F008003400000F83F3F
:103340000000F0BFB6030000740300001203000089
:10335000DA0200002DE9F04D9446CCF1000423F090
:1033600000464CEA0404524F46EAD4749A46884612
:1033700021F00042BC4206D8454240EA050442EA38
:10338000D474BC4204D9BDE8F04D6246FFF7A8BE34
:10339000AAF14055A5F17F6555EA0C040BD0022433
:1033A00004EAAA74434DDFF810E144EAD87452EA03
:1033B000000B04D00CE0BDE8F04DFFF7BBBE002CC5
:1033C00014BF012CBDE8F08D022C30D0032C32D07C
:1033D00056EA0C0B0AD0BE4220D1BA4209D126F0DF
:1033E000804622F080423346114617E000291ADB5E
:1033F00025E0DFF8C8B0FB44002C04BFDBE9000186
:10340000BDE8F08D012C02BFDBE9000181F0004135
:10341000BDE8F08D022C0AD0032C0CD0BA4212D198
:10342000B8F1000F0BDA23482549BDE8F08D284696
:103430002449BDE8F08D28467146BDE8F08D1D4851
:103440002149BDE8F08D921B12153C2AC4BF1948D2
:103450001D490EDCBAF1000FBEBF12F13C0F002077
:10346000014606DB6246FDF760F821F00041FFF7F8
:1034700061FE002C08BFBDE8F08D012C04BF81F077
:103480000041BDE8F08D114A114B022C07D0FCF72A
:10349000D4FF2A46BDE8F04D0A4BFCF7CEBFFCF73F
:1034A000CCFF2A46BDE8F04D064BFCF7C9BF000033
:1034B0000000F07F182D4454FB2109C06E0200006B
:1034C000FB21F9BFFB210940FB21F93F075C1433C5
:1034D00026A6A13C13B54FF6FF73012269460248A8
:1034E000FEF77AFD00981CBDC4010020FDF7FEFE2A
:1034F000FFF772FBFFF79AF8FFF7CAF9FFF71CF91D
:10350000FFF790F9FFF74CF9FFF7F6F83C211D485B
:10351000FEF7DEFA3C211C48FEF7DAFA00211B48D0
:10352000FEF7E8FB1A4D002201212846FDF70FFCAB
:10353000002202212846FDF70AFC04211348FEF769
:10354000D9FB144C002208212046FDF700FC002284
:1035500010212046FDF7FBFBFEF7B0FF10B90EA0CF
:10356000FFF73AFD134C00264FF4805720680128DE
:1035700004D139462846FDF7E2FB2660FFF7E2F961
:10358000F4E700007C010020EC0000203401002062
:10359000000C0140000801404D50552D36303530AB
:1035A00020496E6974205375636365737366756C27
:1035B0006C790000080000200000000000000000FE
:1035C00001020304060708090000000001020304C9
:1035D0004FBB610567ACDD3F182D4454FB21E93F2B
:1035E0009BF681D20B73EF3F182D4454FB21F93F1A
:1035F000E2652F227F2B7A3C075C143326A6813CA0
:10360000BDCBF07A8807703C075C143326A6913C4A
:10361000C4EB98999999C9BF711623FEC671BCBFB6
:103620006D9A74AFF2B0B3BF9AFDDE522DDEADBF1E
:103630002F6C6A2C44B4A2BF0D5555555555D53F36
:10364000FF8300922449C23F6E204CC5CD45B73F51
:10365000513DD0A0660DB13FEB0D76244B7BA93FC9
:1036600011DA22E33AAD903F0000000000000000B4
:10367000903600080000002098000000F430000898
:103680002837000898000020800500000431000859
:10369000000000000000000000000000000000002A
:1036A00000000000000000000000803F0AD7A33B9C
:1036B000000000000000000000000000000000000A
:1036C00000000000000000000000000000000000FA
:1036D00000000000000000000000000000000000EA
:1036E00000000000000000000000000000000000DA
:1036F00000000000000000000000000000000000CA
:1037000000000000000000000000000000000000B9
:103710000000000001000000100000000000000098
:083720000024F4000000000089
:04000005080000ED02
:00000001FF
